{
  "contractName": "Authenticated",
  "abi": [
    {
      "inputs": [],
      "stateMutability": "nonpayable",
      "type": "constructor"
    },
    {
      "anonymous": false,
      "inputs": [
        {
          "indexed": true,
          "internalType": "address",
          "name": "oldOwner",
          "type": "address"
        },
        {
          "indexed": true,
          "internalType": "address",
          "name": "newOwner",
          "type": "address"
        }
      ],
      "name": "OwnerSet",
      "type": "event"
    },
    {
      "inputs": [
        {
          "internalType": "address",
          "name": "",
          "type": "address"
        }
      ],
      "name": "evaluators",
      "outputs": [
        {
          "internalType": "bool",
          "name": "",
          "type": "bool"
        }
      ],
      "stateMutability": "view",
      "type": "function"
    },
    {
      "inputs": [
        {
          "internalType": "address",
          "name": "",
          "type": "address"
        }
      ],
      "name": "registeredUsers",
      "outputs": [
        {
          "internalType": "bool",
          "name": "",
          "type": "bool"
        }
      ],
      "stateMutability": "view",
      "type": "function"
    }
  ],
  "bytecode": "0x608060405234801561001057600080fd5b50336000806101000a81548173ffffffffffffffffffffffffffffffffffffffff021916908373ffffffffffffffffffffffffffffffffffffffff160217905550610165806100606000396000f3fe608060405234801561001057600080fd5b50600436106100365760003560e01c80630e50cee51461003b578063e50d582c14610095575b600080fd5b61007d6004803603602081101561005157600080fd5b81019080803573ffffffffffffffffffffffffffffffffffffffff1690602001909291905050506100ef565b60405180821515815260200191505060405180910390f35b6100d7600480360360208110156100ab57600080fd5b81019080803573ffffffffffffffffffffffffffffffffffffffff16906020019092919050505061010f565b60405180821515815260200191505060405180910390f35b60016020528060005260406000206000915054906101000a900460ff1681565b60026020528060005260406000206000915054906101000a900460ff168156fea26469706673582212202cb7ca7e97ce80955f972120742243bbf3f62e6b1db969d97f1ccc8f2350c90564736f6c63430007030033",
  "immutableReferences": {},
  "source": "// SPDX-License-Identifier: GPL-3.0\n\npragma solidity >=0.6.0 <0.8.0;\n\n/**\n * @title Owner\n * @dev Set & change owner\n */\ncontract Authenticated {\n\n    address private admin;\n    mapping(address => bool) public registeredUsers;\n    mapping(address => bool) public evaluators;\n    \n    // event for EVM logging\n    event OwnerSet(address indexed oldOwner, address indexed newOwner);\n    \n    // modifier to check if caller is owner\n\n    \n    modifier onlyAdmin() {\n        require(msg.sender == admin, \"Only admin can perfom this action\");\n        _;\n    }\n    \n    modifier onlyRegisteredUser() {\n        require(registeredUsers[msg.sender], \"Only registered users can perfom this action\");\n        _;\n    }\n\n    modifier onlyEvaluator() {\n        require(evaluators[msg.sender], \"Only evaluator can perfom this action\");\n        _;\n    }\n    \n    constructor() {\n        admin = msg.sender; \n    }\n}",
  "sourcePath": "/home/chris/Documents/University/RTVC/BAC/bac-vacancy-project/truffle/contracts/Authenticated.sol",
  "compiler": {
    "name": "solc",
    "version": "0.7.3+commit.9bfce1f6.Emscripten.clang"
  },
  "schemaVersion": "3.3.4",
  "updatedAt": "2021-05-27T21:35:25.273Z",
  "devdoc": {
    "details": "Set & change owner",
    "kind": "dev",
    "methods": {},
    "title": "Owner",
    "version": 1
  },
  "userdoc": {
    "kind": "user",
    "methods": {},
    "version": 1
  }
}