{
  "contractName": "Vacancy",
  "abi": [
    {
      "inputs": [
        {
          "internalType": "string",
          "name": "_name",
          "type": "string"
        },
        {
          "internalType": "string",
          "name": "_description",
          "type": "string"
        },
        {
          "internalType": "uint256",
          "name": "_treshold",
          "type": "uint256"
        }
      ],
      "stateMutability": "nonpayable",
      "type": "constructor"
    },
    {
      "anonymous": false,
      "inputs": [
        {
          "indexed": false,
          "internalType": "address payable",
          "name": "applicant",
          "type": "address"
        },
        {
          "indexed": false,
          "internalType": "string",
          "name": "name",
          "type": "string"
        },
        {
          "indexed": false,
          "internalType": "string",
          "name": "bio",
          "type": "string"
        },
        {
          "indexed": false,
          "internalType": "string",
          "name": "skillsAchievementsInfo",
          "type": "string"
        },
        {
          "indexed": false,
          "internalType": "uint256",
          "name": "score",
          "type": "uint256"
        },
        {
          "indexed": false,
          "internalType": "int256",
          "name": "salary",
          "type": "int256"
        }
      ],
      "name": "ApplicantAdded",
      "type": "event"
    },
    {
      "anonymous": false,
      "inputs": [
        {
          "indexed": true,
          "internalType": "bytes32",
          "name": "role",
          "type": "bytes32"
        },
        {
          "indexed": true,
          "internalType": "bytes32",
          "name": "previousAdminRole",
          "type": "bytes32"
        },
        {
          "indexed": true,
          "internalType": "bytes32",
          "name": "newAdminRole",
          "type": "bytes32"
        }
      ],
      "name": "RoleAdminChanged",
      "type": "event"
    },
    {
      "anonymous": false,
      "inputs": [
        {
          "indexed": true,
          "internalType": "bytes32",
          "name": "role",
          "type": "bytes32"
        },
        {
          "indexed": true,
          "internalType": "address",
          "name": "account",
          "type": "address"
        },
        {
          "indexed": true,
          "internalType": "address",
          "name": "sender",
          "type": "address"
        }
      ],
      "name": "RoleGranted",
      "type": "event"
    },
    {
      "anonymous": false,
      "inputs": [
        {
          "indexed": true,
          "internalType": "bytes32",
          "name": "role",
          "type": "bytes32"
        },
        {
          "indexed": true,
          "internalType": "address",
          "name": "account",
          "type": "address"
        },
        {
          "indexed": true,
          "internalType": "address",
          "name": "sender",
          "type": "address"
        }
      ],
      "name": "RoleRevoked",
      "type": "event"
    },
    {
      "inputs": [],
      "name": "ADMIN",
      "outputs": [
        {
          "internalType": "bytes32",
          "name": "",
          "type": "bytes32"
        }
      ],
      "stateMutability": "view",
      "type": "function",
      "constant": true
    },
    {
      "inputs": [],
      "name": "DEFAULT_ADMIN_ROLE",
      "outputs": [
        {
          "internalType": "bytes32",
          "name": "",
          "type": "bytes32"
        }
      ],
      "stateMutability": "view",
      "type": "function",
      "constant": true
    },
    {
      "inputs": [],
      "name": "EVALUATOR",
      "outputs": [
        {
          "internalType": "bytes32",
          "name": "",
          "type": "bytes32"
        }
      ],
      "stateMutability": "view",
      "type": "function",
      "constant": true
    },
    {
      "inputs": [],
      "name": "USER",
      "outputs": [
        {
          "internalType": "bytes32",
          "name": "",
          "type": "bytes32"
        }
      ],
      "stateMutability": "view",
      "type": "function",
      "constant": true
    },
    {
      "inputs": [
        {
          "internalType": "address",
          "name": "",
          "type": "address"
        }
      ],
      "name": "alreadyApplied",
      "outputs": [
        {
          "internalType": "bool",
          "name": "",
          "type": "bool"
        }
      ],
      "stateMutability": "view",
      "type": "function",
      "constant": true
    },
    {
      "inputs": [],
      "name": "applicantCount",
      "outputs": [
        {
          "internalType": "uint256",
          "name": "",
          "type": "uint256"
        }
      ],
      "stateMutability": "view",
      "type": "function",
      "constant": true
    },
    {
      "inputs": [
        {
          "internalType": "uint256",
          "name": "",
          "type": "uint256"
        }
      ],
      "name": "applicants",
      "outputs": [
        {
          "internalType": "address payable",
          "name": "applicant",
          "type": "address"
        },
        {
          "internalType": "string",
          "name": "name",
          "type": "string"
        },
        {
          "internalType": "string",
          "name": "bio",
          "type": "string"
        },
        {
          "internalType": "string",
          "name": "skillsAchievementsInfo",
          "type": "string"
        },
        {
          "internalType": "uint256",
          "name": "score",
          "type": "uint256"
        },
        {
          "internalType": "int256",
          "name": "salary",
          "type": "int256"
        },
        {
          "internalType": "int256",
          "name": "currentEthValue",
          "type": "int256"
        }
      ],
      "stateMutability": "view",
      "type": "function",
      "constant": true
    },
    {
      "inputs": [],
      "name": "description",
      "outputs": [
        {
          "internalType": "string",
          "name": "",
          "type": "string"
        }
      ],
      "stateMutability": "view",
      "type": "function",
      "constant": true
    },
    {
      "inputs": [],
      "name": "ethSalary",
      "outputs": [
        {
          "internalType": "int256",
          "name": "",
          "type": "int256"
        }
      ],
      "stateMutability": "view",
      "type": "function",
      "constant": true
    },
    {
      "inputs": [
        {
          "internalType": "bytes32",
          "name": "role",
          "type": "bytes32"
        }
      ],
      "name": "getRoleAdmin",
      "outputs": [
        {
          "internalType": "bytes32",
          "name": "",
          "type": "bytes32"
        }
      ],
      "stateMutability": "view",
      "type": "function",
      "constant": true
    },
    {
      "inputs": [
        {
          "internalType": "bytes32",
          "name": "role",
          "type": "bytes32"
        },
        {
          "internalType": "address",
          "name": "account",
          "type": "address"
        }
      ],
      "name": "grantRole",
      "outputs": [],
      "stateMutability": "nonpayable",
      "type": "function"
    },
    {
      "inputs": [
        {
          "internalType": "bytes32",
          "name": "role",
          "type": "bytes32"
        },
        {
          "internalType": "address",
          "name": "account",
          "type": "address"
        }
      ],
      "name": "hasRole",
      "outputs": [
        {
          "internalType": "bool",
          "name": "",
          "type": "bool"
        }
      ],
      "stateMutability": "view",
      "type": "function",
      "constant": true
    },
    {
      "inputs": [],
      "name": "isOpen",
      "outputs": [
        {
          "internalType": "bool",
          "name": "",
          "type": "bool"
        }
      ],
      "stateMutability": "view",
      "type": "function",
      "constant": true
    },
    {
      "inputs": [],
      "name": "name",
      "outputs": [
        {
          "internalType": "string",
          "name": "",
          "type": "string"
        }
      ],
      "stateMutability": "view",
      "type": "function",
      "constant": true
    },
    {
      "inputs": [
        {
          "internalType": "bytes32",
          "name": "role",
          "type": "bytes32"
        },
        {
          "internalType": "address",
          "name": "account",
          "type": "address"
        }
      ],
      "name": "renounceRole",
      "outputs": [],
      "stateMutability": "nonpayable",
      "type": "function"
    },
    {
      "inputs": [
        {
          "internalType": "bytes32",
          "name": "role",
          "type": "bytes32"
        },
        {
          "internalType": "address",
          "name": "account",
          "type": "address"
        }
      ],
      "name": "revokeRole",
      "outputs": [],
      "stateMutability": "nonpayable",
      "type": "function"
    },
    {
      "inputs": [
        {
          "internalType": "bytes4",
          "name": "interfaceId",
          "type": "bytes4"
        }
      ],
      "name": "supportsInterface",
      "outputs": [
        {
          "internalType": "bool",
          "name": "",
          "type": "bool"
        }
      ],
      "stateMutability": "view",
      "type": "function",
      "constant": true
    },
    {
      "inputs": [],
      "name": "treshold",
      "outputs": [
        {
          "internalType": "uint256",
          "name": "",
          "type": "uint256"
        }
      ],
      "stateMutability": "view",
      "type": "function",
      "constant": true
    },
    {
      "inputs": [],
      "name": "vacancyVersion",
      "outputs": [
        {
          "internalType": "uint256",
          "name": "",
          "type": "uint256"
        }
      ],
      "stateMutability": "view",
      "type": "function",
      "constant": true
    },
    {
      "inputs": [
        {
          "internalType": "address",
          "name": "_user",
          "type": "address"
        }
      ],
      "name": "registerAsUser",
      "outputs": [],
      "stateMutability": "nonpayable",
      "type": "function"
    },
    {
      "inputs": [
        {
          "internalType": "address",
          "name": "_evaluator",
          "type": "address"
        }
      ],
      "name": "registerAsEvaluator",
      "outputs": [],
      "stateMutability": "nonpayable",
      "type": "function"
    },
    {
      "inputs": [
        {
          "internalType": "string",
          "name": "_name",
          "type": "string"
        },
        {
          "internalType": "string",
          "name": "_bio",
          "type": "string"
        },
        {
          "internalType": "string",
          "name": "_skillsAchievementsInfo",
          "type": "string"
        },
        {
          "internalType": "int256",
          "name": "_salary",
          "type": "int256"
        }
      ],
      "name": "addApplicant",
      "outputs": [],
      "stateMutability": "nonpayable",
      "type": "function"
    },
    {
      "inputs": [
        {
          "internalType": "uint256",
          "name": "_id",
          "type": "uint256"
        }
      ],
      "name": "evaluateUser",
      "outputs": [],
      "stateMutability": "payable",
      "type": "function",
      "payable": true
    },
    {
      "inputs": [],
      "name": "openVacancy",
      "outputs": [],
      "stateMutability": "nonpayable",
      "type": "function"
    },
    {
      "inputs": [],
      "name": "closeVacancy",
      "outputs": [],
      "stateMutability": "nonpayable",
      "type": "function"
    }
  ],
  "bytecode": "0x60806040526001600460006101000a81548160ff021916908315150217905550600060055560006006553480156200003657600080fd5b50604051620031013803806200310183398181016040528101906200005c9190620003d7565b6200008e7fdf8b4c520ffe197c5343c6f5aec59570151ef9a492f2c624fd45ddde6135ec42336200012560201b60201c565b8260019080519060200190620000a69291906200029e565b508160029080519060200190620000bf9291906200029e565b5080600381905550739326bfa02add2366b30bacb125260af641031331600b60006101000a81548173ffffffffffffffffffffffffffffffffffffffff021916908373ffffffffffffffffffffffffffffffffffffffff160217905550505050620005f3565b6200013782826200013b60201b60201c565b5050565b6200014d82826200022c60201b60201c565b6200022857600160008084815260200190815260200160002060000160008373ffffffffffffffffffffffffffffffffffffffff1673ffffffffffffffffffffffffffffffffffffffff16815260200190815260200160002060006101000a81548160ff021916908315150217905550620001cd6200029660201b60201c565b73ffffffffffffffffffffffffffffffffffffffff168173ffffffffffffffffffffffffffffffffffffffff16837f2f8788117e7eff1d82e926ec794901d17c78024a50270940304540a733656f0d60405160405180910390a45b5050565b600080600084815260200190815260200160002060000160008373ffffffffffffffffffffffffffffffffffffffff1673ffffffffffffffffffffffffffffffffffffffff16815260200190815260200160002060009054906101000a900460ff16905092915050565b600033905090565b828054620002ac90620004fe565b90600052602060002090601f016020900481019282620002d057600085556200031c565b82601f10620002eb57805160ff19168380011785556200031c565b828001600101855582156200031c579182015b828111156200031b578251825591602001919060010190620002fe565b5b5090506200032b91906200032f565b5090565b5b808211156200034a57600081600090555060010162000330565b5090565b6000620003656200035f8462000488565b6200045f565b9050828152602081018484840111156200037e57600080fd5b6200038b848285620004c8565b509392505050565b600082601f830112620003a557600080fd5b8151620003b78482602086016200034e565b91505092915050565b600081519050620003d181620005d9565b92915050565b600080600060608486031215620003ed57600080fd5b600084015167ffffffffffffffff8111156200040857600080fd5b620004168682870162000393565b935050602084015167ffffffffffffffff8111156200043457600080fd5b620004428682870162000393565b92505060406200045586828701620003c0565b9150509250925092565b60006200046b6200047e565b905062000479828262000534565b919050565b6000604051905090565b600067ffffffffffffffff821115620004a657620004a562000599565b5b620004b182620005c8565b9050602081019050919050565b6000819050919050565b60005b83811015620004e8578082015181840152602081019050620004cb565b83811115620004f8576000848401525b50505050565b600060028204905060018216806200051757607f821691505b602082108114156200052e576200052d6200056a565b5b50919050565b6200053f82620005c8565b810181811067ffffffffffffffff8211171562000561576200056062000599565b5b80604052505050565b7f4e487b7100000000000000000000000000000000000000000000000000000000600052602260045260246000fd5b7f4e487b7100000000000000000000000000000000000000000000000000000000600052604160045260246000fd5b6000601f19601f8301169050919050565b620005e481620004be565b8114620005f057600080fd5b50565b612afe80620006036000396000f3fe6080604052600436106101665760003560e01c8063709d878e116100d157806391d148541161008a578063d1fc92d411610064578063d1fc92d414610534578063d547741f14610550578063d7ca9cd714610579578063df9e6a621461059057610166565b806391d14854146104a3578063a217fddf146104e0578063b33a75fb1461050b57610166565b8063709d878e146103935780637284e416146103bc5780637b097b81146103e757806380870c721461041057806381e167cf1461044d5780638e8129ae1461047857610166565b80632a0acc6a116101235780632a0acc6a1461027d5780632f2ff15d146102a857806336568abe146102d1578063382512e8146102fa57806347535d7b1461032557806363de53231461035057610166565b806301ffc9a71461016b57806306fdde03146101a857806318f53993146101d35780631933a6f0146101fe57806321e809a514610229578063248a9ca314610240575b600080fd5b34801561017757600080fd5b50610192600480360381019061018d9190611f33565b6105bb565b60405161019f91906123b7565b60405180910390f35b3480156101b457600080fd5b506101bd610635565b6040516101ca9190612408565b60405180910390f35b3480156101df57600080fd5b506101e86106c3565b6040516101f591906124ea565b60405180910390f35b34801561020a57600080fd5b506102136106c9565b60405161022091906123d2565b60405180910390f35b34801561023557600080fd5b5061023e6106ec565b005b34801561024c57600080fd5b5061026760048036038101906102629190611ece565b61088e565b60405161027491906123d2565b60405180910390f35b34801561028957600080fd5b506102926108ad565b60405161029f91906123d2565b60405180910390f35b3480156102b457600080fd5b506102cf60048036038101906102ca9190611ef7565b6108d1565b005b3480156102dd57600080fd5b506102f860048036038101906102f39190611ef7565b6108fa565b005b34801561030657600080fd5b5061030f61097d565b60405161031c91906124ea565b60405180910390f35b34801561033157600080fd5b5061033a610983565b60405161034791906123b7565b60405180910390f35b34801561035c57600080fd5b5061037760048036038101906103729190612007565b610996565b60405161038a9796959493929190612333565b60405180910390f35b34801561039f57600080fd5b506103ba60048036038101906103b59190611f5c565b610b90565b005b3480156103c857600080fd5b506103d1610eb3565b6040516103de9190612408565b60405180910390f35b3480156103f357600080fd5b5061040e60048036038101906104099190611ea5565b610f41565b005b34801561041c57600080fd5b5061043760048036038101906104329190611ea5565b611020565b60405161044491906123b7565b60405180910390f35b34801561045957600080fd5b50610462611040565b60405161046f91906123d2565b60405180910390f35b34801561048457600080fd5b5061048d611064565b60405161049a91906124ea565b60405180910390f35b3480156104af57600080fd5b506104ca60048036038101906104c59190611ef7565b61106a565b6040516104d791906123b7565b60405180910390f35b3480156104ec57600080fd5b506104f56110d4565b60405161050291906123d2565b60405180910390f35b34801561051757600080fd5b50610532600480360381019061052d9190611ea5565b6110db565b005b61054e60048036038101906105499190612007565b611156565b005b34801561055c57600080fd5b5061057760048036038101906105729190611ef7565b6115dd565b005b34801561058557600080fd5b5061058e611606565b005b34801561059c57600080fd5b506105a5611656565b6040516105b291906123ed565b60405180910390f35b60007f7965db0b000000000000000000000000000000000000000000000000000000007bffffffffffffffffffffffffffffffffffffffffffffffffffffffff1916827bffffffffffffffffffffffffffffffffffffffffffffffffffffffff1916148061062e575061062d8261165c565b5b9050919050565b6001805461064290612760565b80601f016020809104026020016040519081016040528092919081815260200182805461066e90612760565b80156106bb5780601f10610690576101008083540402835291602001916106bb565b820191906000526020600020905b81548152906001019060200180831161069e57829003601f168201915b505050505081565b60055481565b7e4f13fa3e85221cae6e297e754a8ab58b2ac55382b0b17ca3d53370d4f5633581565b7fdf8b4c520ffe197c5343c6f5aec59570151ef9a492f2c624fd45ddde6135ec4261071e816107196116c6565b6116ce565b600460009054906101000a900460ff161561076e576040517f08c379a00000000000000000000000000000000000000000000000000000000081526004016107659061246a565b60405180910390fd5b6001600460006101000a81548160ff02191690831515021790555060036006600082825461079c9190612582565b92505081905550600060058190555060005b60098054905081101561088a57600060086000600984815481106107fb577f4e487b7100000000000000000000000000000000000000000000000000000000600052603260045260246000fd5b9060005260206000200160009054906101000a900473ffffffffffffffffffffffffffffffffffffffff1673ffffffffffffffffffffffffffffffffffffffff1673ffffffffffffffffffffffffffffffffffffffff16815260200190815260200160002060006101000a81548160ff0219169083151502179055508080610882906127c3565b9150506107ae565b5050565b6000806000838152602001908152602001600020600101549050919050565b7fdf8b4c520ffe197c5343c6f5aec59570151ef9a492f2c624fd45ddde6135ec4281565b6108da8261088e565b6108eb816108e66116c6565b6116ce565b6108f5838361176b565b505050565b6109026116c6565b73ffffffffffffffffffffffffffffffffffffffff168173ffffffffffffffffffffffffffffffffffffffff161461096f576040517f08c379a0000000000000000000000000000000000000000000000000000000008152600401610966906124ca565b60405180910390fd5b610979828261184b565b5050565b60035481565b600460009054906101000a900460ff1681565b60076020528060005260406000206000915090508060000160009054906101000a900473ffffffffffffffffffffffffffffffffffffffff16908060010180546109df90612760565b80601f0160208091040260200160405190810160405280929190818152602001828054610a0b90612760565b8015610a585780601f10610a2d57610100808354040283529160200191610a58565b820191906000526020600020905b815481529060010190602001808311610a3b57829003601f168201915b505050505090806002018054610a6d90612760565b80601f0160208091040260200160405190810160405280929190818152602001828054610a9990612760565b8015610ae65780601f10610abb57610100808354040283529160200191610ae6565b820191906000526020600020905b815481529060010190602001808311610ac957829003601f168201915b505050505090806003018054610afb90612760565b80601f0160208091040260200160405190810160405280929190818152602001828054610b2790612760565b8015610b745780601f10610b4957610100808354040283529160200191610b74565b820191906000526020600020905b815481529060010190602001808311610b5757829003601f168201915b5050505050908060040154908060050154908060060154905087565b7f2db9fd3d099848027c2383d0a083396f6c41510d7acfd92adc99b6cffcf31e96610bc281610bbd6116c6565b6116ce565b600460009054906101000a900460ff16610c11576040517f08c379a0000000000000000000000000000000000000000000000000000000008152600401610c08906124aa565b60405180910390fd5b600860003373ffffffffffffffffffffffffffffffffffffffff1673ffffffffffffffffffffffffffffffffffffffff16815260200190815260200160002060009054906101000a900460ff1615610c9e576040517f08c379a0000000000000000000000000000000000000000000000000000000008152600401610c959061248a565b60405180910390fd5b6000855111610cac57600080fd5b6000845111610cba57600080fd5b6000835111610cc857600080fd5b6001600860003373ffffffffffffffffffffffffffffffffffffffff1673ffffffffffffffffffffffffffffffffffffffff16815260200190815260200160002060006101000a81548160ff02191690831515021790555060056000815480929190610d33906127c3565b91905055506040518060e001604052803373ffffffffffffffffffffffffffffffffffffffff16815260200186815260200185815260200184815260200160008152602001838152602001610d8661192c565b81525060076000600554600654610d9d9190612582565b815260200190815260200160002060008201518160000160006101000a81548173ffffffffffffffffffffffffffffffffffffffff021916908373ffffffffffffffffffffffffffffffffffffffff1602179055506020820151816001019080519060200190610e0e929190611cf2565b506040820151816002019080519060200190610e2b929190611cf2565b506060820151816003019080519060200190610e48929190611cf2565b506080820151816004015560a0820151816005015560c082015181600601559050507f13a50ae59faa48374d2e6319a6b10b55a34eb5bc5009599e88c8eef82a88525333868686600087604051610ea4969594939291906122bd565b60405180910390a15050505050565b60028054610ec090612760565b80601f0160208091040260200160405190810160405280929190818152602001828054610eec90612760565b8015610f395780601f10610f0e57610100808354040283529160200191610f39565b820191906000526020600020905b815481529060010190602001808311610f1c57829003601f168201915b505050505081565b600460009054906101000a900460ff16610f90576040517f08c379a0000000000000000000000000000000000000000000000000000000008152600401610f87906124aa565b60405180910390fd5b610fba7f2db9fd3d099848027c2383d0a083396f6c41510d7acfd92adc99b6cffcf31e96826119ea565b6009819080600181540180825580915050600190039060005260206000200160009091909190916101000a81548173ffffffffffffffffffffffffffffffffffffffff021916908373ffffffffffffffffffffffffffffffffffffffff16021790555050565b60086020528060005260406000206000915054906101000a900460ff1681565b7f2db9fd3d099848027c2383d0a083396f6c41510d7acfd92adc99b6cffcf31e9681565b60065481565b600080600084815260200190815260200160002060000160008373ffffffffffffffffffffffffffffffffffffffff1673ffffffffffffffffffffffffffffffffffffffff16815260200190815260200160002060009054906101000a900460ff16905092915050565b6000801b81565b600460009054906101000a900460ff1661112a576040517f08c379a0000000000000000000000000000000000000000000000000000000008152600401611121906124aa565b60405180910390fd5b6111537e4f13fa3e85221cae6e297e754a8ab58b2ac55382b0b17ca3d53370d4f56335826119ea565b50565b7e4f13fa3e85221cae6e297e754a8ab58b2ac55382b0b17ca3d53370d4f56335611187816111826116c6565b6116ce565b600460009054906101000a900460ff166111d6576040517f08c379a00000000000000000000000000000000000000000000000000000000081526004016111cd906124aa565b60405180910390fd5b606434111561121a576040517f08c379a00000000000000000000000000000000000000000000000000000000081526004016112119061244a565b60405180910390fd5b60008211801561122c57506005548211155b61123557600080fd5b600060076000846006546112499190612582565b81526020019081526020016000206040518060e00160405290816000820160009054906101000a900473ffffffffffffffffffffffffffffffffffffffff1673ffffffffffffffffffffffffffffffffffffffff1673ffffffffffffffffffffffffffffffffffffffff1681526020016001820180546112c890612760565b80601f01602080910402602001604051908101604052809291908181526020018280546112f490612760565b80156113415780601f1061131657610100808354040283529160200191611341565b820191906000526020600020905b81548152906001019060200180831161132457829003601f168201915b5050505050815260200160028201805461135a90612760565b80601f016020809104026020016040519081016040528092919081815260200182805461138690612760565b80156113d35780601f106113a8576101008083540402835291602001916113d3565b820191906000526020600020905b8154815290600101906020018083116113b657829003601f168201915b505050505081526020016003820180546113ec90612760565b80601f016020809104026020016040519081016040528092919081815260200182805461141890612760565b80156114655780601f1061143a57610100808354040283529160200191611465565b820191906000526020600020905b81548152906001019060200180831161144857829003601f168201915b50505050508152602001600482015481526020016005820154815260200160068201548152505090506000816000015190508073ffffffffffffffffffffffffffffffffffffffff166108fc349081150290604051600060405180830381858888f193505050501580156114dd573d6000803e3d6000fd5b503482608001516114ee9190612582565b82608001818152505081600760008660065461150a9190612582565b815260200190815260200160002060008201518160000160006101000a81548173ffffffffffffffffffffffffffffffffffffffff021916908373ffffffffffffffffffffffffffffffffffffffff160217905550602082015181600101908051906020019061157b929190611cf2565b506040820151816002019080519060200190611598929190611cf2565b5060608201518160030190805190602001906115b5929190611cf2565b506080820151816004015560a0820151816005015560c0820151816006015590505050505050565b6115e68261088e565b6115f7816115f26116c6565b6116ce565b611601838361184b565b505050565b7fdf8b4c520ffe197c5343c6f5aec59570151ef9a492f2c624fd45ddde6135ec42611638816116336116c6565b6116ce565b6000600460006101000a81548160ff02191690831515021790555050565b600a5481565b60007f01ffc9a7000000000000000000000000000000000000000000000000000000007bffffffffffffffffffffffffffffffffffffffffffffffffffffffff1916827bffffffffffffffffffffffffffffffffffffffffffffffffffffffff1916149050919050565b600033905090565b6116d8828261106a565b611767576116fd8173ffffffffffffffffffffffffffffffffffffffff1660146119f8565b61170b8360001c60206119f8565b60405160200161171c929190612283565b6040516020818303038152906040526040517f08c379a000000000000000000000000000000000000000000000000000000000815260040161175e9190612408565b60405180910390fd5b5050565b611775828261106a565b61184757600160008084815260200190815260200160002060000160008373ffffffffffffffffffffffffffffffffffffffff1673ffffffffffffffffffffffffffffffffffffffff16815260200190815260200160002060006101000a81548160ff0219169083151502179055506117ec6116c6565b73ffffffffffffffffffffffffffffffffffffffff168173ffffffffffffffffffffffffffffffffffffffff16837f2f8788117e7eff1d82e926ec794901d17c78024a50270940304540a733656f0d60405160405180910390a45b5050565b611855828261106a565b1561192857600080600084815260200190815260200160002060000160008373ffffffffffffffffffffffffffffffffffffffff1673ffffffffffffffffffffffffffffffffffffffff16815260200190815260200160002060006101000a81548160ff0219169083151502179055506118cd6116c6565b73ffffffffffffffffffffffffffffffffffffffff168173ffffffffffffffffffffffffffffffffffffffff16837ff6391f5c32d9c69d2a47ea670b442974b53935d1edc7fd64eb21e047a839171b60405160405180910390a45b5050565b600080600080600080600b60009054906101000a900473ffffffffffffffffffffffffffffffffffffffff1673ffffffffffffffffffffffffffffffffffffffff1663feaf968c6040518163ffffffff1660e01b815260040160a06040518083038186803b15801561199d57600080fd5b505afa1580156119b1573d6000803e3d6000fd5b505050506040513d601f19601f820116820180604052508101906119d59190612030565b94509450945094509450839550505050505090565b6119f4828261176b565b5050565b606060006002836002611a0b91906125d8565b611a159190612582565b67ffffffffffffffff811115611a54577f4e487b7100000000000000000000000000000000000000000000000000000000600052604160045260246000fd5b6040519080825280601f01601f191660200182016040528015611a865781602001600182028036833780820191505090505b5090507f300000000000000000000000000000000000000000000000000000000000000081600081518110611ae4577f4e487b7100000000000000000000000000000000000000000000000000000000600052603260045260246000fd5b60200101907effffffffffffffffffffffffffffffffffffffffffffffffffffffffffffff1916908160001a9053507f780000000000000000000000000000000000000000000000000000000000000081600181518110611b6e577f4e487b7100000000000000000000000000000000000000000000000000000000600052603260045260246000fd5b60200101907effffffffffffffffffffffffffffffffffffffffffffffffffffffffffffff1916908160001a90535060006001846002611bae91906125d8565b611bb89190612582565b90505b6001811115611ca4577f3031323334353637383961626364656600000000000000000000000000000000600f861660108110611c20577f4e487b7100000000000000000000000000000000000000000000000000000000600052603260045260246000fd5b1a60f81b828281518110611c5d577f4e487b7100000000000000000000000000000000000000000000000000000000600052603260045260246000fd5b60200101907effffffffffffffffffffffffffffffffffffffffffffffffffffffffffffff1916908160001a905350600485901c945080611c9d90612736565b9050611bbb565b5060008414611ce8576040517f08c379a0000000000000000000000000000000000000000000000000000000008152600401611cdf9061242a565b60405180910390fd5b8091505092915050565b828054611cfe90612760565b90600052602060002090601f016020900481019282611d205760008555611d67565b82601f10611d3957805160ff1916838001178555611d67565b82800160010185558215611d67579182015b82811115611d66578251825591602001919060010190611d4b565b5b509050611d749190611d78565b5090565b5b80821115611d91576000816000905550600101611d79565b5090565b6000611da8611da38461252a565b612505565b905082815260208101848484011115611dc057600080fd5b611dcb8482856126f4565b509392505050565b600081359050611de281612a3e565b92915050565b600081359050611df781612a55565b92915050565b600081359050611e0c81612a6c565b92915050565b600081359050611e2181612a83565b92915050565b600081519050611e3681612a83565b92915050565b600082601f830112611e4d57600080fd5b8135611e5d848260208601611d95565b91505092915050565b600081359050611e7581612a9a565b92915050565b600081519050611e8a81612a9a565b92915050565b600081519050611e9f81612ab1565b92915050565b600060208284031215611eb757600080fd5b6000611ec584828501611dd3565b91505092915050565b600060208284031215611ee057600080fd5b6000611eee84828501611de8565b91505092915050565b60008060408385031215611f0a57600080fd5b6000611f1885828601611de8565b9250506020611f2985828601611dd3565b9150509250929050565b600060208284031215611f4557600080fd5b6000611f5384828501611dfd565b91505092915050565b60008060008060808587031215611f7257600080fd5b600085013567ffffffffffffffff811115611f8c57600080fd5b611f9887828801611e3c565b945050602085013567ffffffffffffffff811115611fb557600080fd5b611fc187828801611e3c565b935050604085013567ffffffffffffffff811115611fde57600080fd5b611fea87828801611e3c565b9250506060611ffb87828801611e12565b91505092959194509250565b60006020828403121561201957600080fd5b600061202784828501611e66565b91505092915050565b600080600080600060a0868803121561204857600080fd5b600061205688828901611e90565b955050602061206788828901611e27565b945050604061207888828901611e7b565b935050606061208988828901611e7b565b925050608061209a88828901611e90565b9150509295509295909350565b6120b081612644565b82525050565b6120bf81612656565b82525050565b6120ce81612662565b82525050565b6120dd81612698565b82525050565b6120ec816126e2565b82525050565b60006120fd8261255b565b6121078185612566565b9350612117818560208601612703565b61212081612899565b840191505092915050565b60006121368261255b565b6121408185612577565b9350612150818560208601612703565b80840191505092915050565b6000612169602083612566565b9150612174826128aa565b602082019050919050565b600061218c602c83612566565b9150612197826128d3565b604082019050919050565b60006121af601783612566565b91506121ba82612922565b602082019050919050565b60006121d2601d83612566565b91506121dd8261294b565b602082019050919050565b60006121f5601383612566565b915061220082612974565b602082019050919050565b6000612218601783612577565b91506122238261299d565b601782019050919050565b600061223b601183612577565b9150612246826129c6565b601182019050919050565b600061225e602f83612566565b9150612269826129ef565b604082019050919050565b61227d816126c2565b82525050565b600061228e8261220b565b915061229a828561212b565b91506122a58261222e565b91506122b1828461212b565b91508190509392505050565b600060c0820190506122d260008301896120a7565b81810360208301526122e481886120f2565b905081810360408301526122f881876120f2565b9050818103606083015261230c81866120f2565b905061231b60808301856120e3565b61232860a08301846120d4565b979650505050505050565b600060e082019050612348600083018a6120a7565b818103602083015261235a81896120f2565b9050818103604083015261236e81886120f2565b9050818103606083015261238281876120f2565b90506123916080830186612274565b61239e60a08301856120d4565b6123ab60c08301846120d4565b98975050505050505050565b60006020820190506123cc60008301846120b6565b92915050565b60006020820190506123e760008301846120c5565b92915050565b600060208201905061240260008301846120d4565b92915050565b6000602082019050818103600083015261242281846120f2565b905092915050565b600060208201905081810360008301526124438161215c565b9050919050565b600060208201905081810360008301526124638161217f565b9050919050565b60006020820190508181036000830152612483816121a2565b9050919050565b600060208201905081810360008301526124a3816121c5565b9050919050565b600060208201905081810360008301526124c3816121e8565b9050919050565b600060208201905081810360008301526124e381612251565b9050919050565b60006020820190506124ff6000830184612274565b92915050565b600061250f612520565b905061251b8282612792565b919050565b6000604051905090565b600067ffffffffffffffff8211156125455761254461286a565b5b61254e82612899565b9050602081019050919050565b600081519050919050565b600082825260208201905092915050565b600081905092915050565b600061258d826126c2565b9150612598836126c2565b9250827fffffffffffffffffffffffffffffffffffffffffffffffffffffffffffffffff038211156125cd576125cc61280c565b5b828201905092915050565b60006125e3826126c2565b91506125ee836126c2565b9250817fffffffffffffffffffffffffffffffffffffffffffffffffffffffffffffffff04831182151516156126275761262661280c565b5b828202905092915050565b600061263d826126a2565b9050919050565b600061264f826126a2565b9050919050565b60008115159050919050565b6000819050919050565b60007fffffffff0000000000000000000000000000000000000000000000000000000082169050919050565b6000819050919050565b600073ffffffffffffffffffffffffffffffffffffffff82169050919050565b6000819050919050565b600069ffffffffffffffffffff82169050919050565b60006126ed826126c2565b9050919050565b82818337600083830152505050565b60005b83811015612721578082015181840152602081019050612706565b83811115612730576000848401525b50505050565b6000612741826126c2565b915060008214156127555761275461280c565b5b600182039050919050565b6000600282049050600182168061277857607f821691505b6020821081141561278c5761278b61283b565b5b50919050565b61279b82612899565b810181811067ffffffffffffffff821117156127ba576127b961286a565b5b80604052505050565b60006127ce826126c2565b91507fffffffffffffffffffffffffffffffffffffffffffffffffffffffffffffffff8214156128015761280061280c565b5b600182019050919050565b7f4e487b7100000000000000000000000000000000000000000000000000000000600052601160045260246000fd5b7f4e487b7100000000000000000000000000000000000000000000000000000000600052602260045260246000fd5b7f4e487b7100000000000000000000000000000000000000000000000000000000600052604160045260246000fd5b6000601f19601f8301169050919050565b7f537472696e67733a20686578206c656e67746820696e73756666696369656e74600082015250565b7f4576616c7561746f722063616e206f6e6c792061737369676e206174206d6f7360008201527f742031303020706f696e74730000000000000000000000000000000000000000602082015250565b7f566163616e637920697320616c7265616479206f70656e000000000000000000600082015250565b7f4170706c6963616e742068617320616c7265616479206170706c696564000000600082015250565b7f566163616e6379206973206e6f74206f70656e00000000000000000000000000600082015250565b7f416363657373436f6e74726f6c3a206163636f756e7420000000000000000000600082015250565b7f206973206d697373696e6720726f6c6520000000000000000000000000000000600082015250565b7f416363657373436f6e74726f6c3a2063616e206f6e6c792072656e6f756e636560008201527f20726f6c657320666f722073656c660000000000000000000000000000000000602082015250565b612a4781612632565b8114612a5257600080fd5b50565b612a5e81612662565b8114612a6957600080fd5b50565b612a758161266c565b8114612a8057600080fd5b50565b612a8c81612698565b8114612a9757600080fd5b50565b612aa3816126c2565b8114612aae57600080fd5b50565b612aba816126cc565b8114612ac557600080fd5b5056fea264697066735822122086938406374dc4a2bc5e3b4efbc346937c45803336a3afbc1d73b7a1a64ba7d164736f6c63430008030033",
  "immutableReferences": {},
  "source": "// SPDX-License-Identifier: GPL-3.0\n\npragma solidity >=0.6.5 <0.8.5;\n\n/** \n * @title Vacancy\n * @dev Implements voting process in the applicant selection for an open vacancy\n */\n \nimport \"@chainlink/contracts/src/v0.6/interfaces/AggregatorV3Interface.sol\";\nimport \"@openzeppelin/contracts/access/AccessControl.sol\";\n\ncontract Vacancy is AccessControl {\n    string public name;\n    string public description;\n    uint public treshold;\n    bool public isOpen = true;\n    uint256 public applicantCount = 0;\n    uint256 public vacancyVersion = 0;\n\n    mapping(uint256 => Applicant) public applicants;\n    mapping(address => bool) public alreadyApplied;\n    \n    address[] auxRegisteredUsers;\n\n    int256 public ethSalary;\n\n    // Oraculo\n    AggregatorV3Interface internal priceFeed;\n    \n    //OpenZeppelin\n    bytes32 public constant USER = keccak256(\"USER\");\n    bytes32 public constant EVALUATOR = keccak256(\"EVALUATOR\");\n    bytes32 public constant ADMIN = keccak256(\"ADMIN\");\n    \n\n    struct Applicant {\n        address payable applicant;\n        string name;\n        string bio;\n        string skillsAchievementsInfo;\n        uint  score;\n        int256 salary;\n        int256 currentEthValue;\n    }\n\n    event ApplicantAdded(\n        address payable applicant,\n        string name,\n        string bio,\n        string skillsAchievementsInfo,\n        uint score,\n        int256 salary\n    );\n\n    constructor(string memory _name, string memory _description, uint _treshold) {\n        _setupRole(ADMIN, msg.sender);\n        name = _name;\n        description = _description;\n        treshold = _treshold;\n        \n        priceFeed = AggregatorV3Interface(0x9326BFA02ADD2366b30bacB125260Af641031331);\n    }\n    \n    function getLatestPrice() internal view returns (int) {\n        (\n            uint80 roundID, \n            int price,\n            uint startedAt,\n            uint timeStamp,\n            uint80 answeredInRound\n        ) = priceFeed.latestRoundData();\n        return price;\n    }\n    \n    function registerAsUser(address _user) public {\n        require(isOpen, \"Vacancy is not open\");\n        _setupRole(USER, _user);\n        auxRegisteredUsers.push(_user);\n    }\n    \n    function registerAsEvaluator(address _evaluator) public {\n        require(isOpen, \"Vacancy is not open\");\n        _setupRole(EVALUATOR, _evaluator);\n    }\n\n    function addApplicant(string memory _name, string memory _bio, string memory _skillsAchievementsInfo, int256 _salary) public onlyRole(USER) {\n        require(isOpen, \"Vacancy is not open\");\n        require(!alreadyApplied[msg.sender], \"Applicant has already applied\");\n        require(bytes(_name).length > 0);\n        require(bytes(_bio).length > 0);\n        require(bytes(_skillsAchievementsInfo).length > 0);\n        \n        alreadyApplied[msg.sender] = true;\n        \n        applicantCount++;\n        applicants[vacancyVersion + applicantCount] = Applicant(payable(msg.sender), _name, _bio, _skillsAchievementsInfo, 0, _salary, getLatestPrice());\n        emit ApplicantAdded(payable(msg.sender), _name, _bio, _skillsAchievementsInfo, 0, _salary);\n    }\n\n    function evaluateUser(uint256 _id) public payable onlyRole(EVALUATOR) {\n        require(isOpen, \"Vacancy is not open\");\n        require(msg.value <= 100, \"Evaluator can only assign at most 100 points\");\n        \n        require(_id > 0 && _id <= applicantCount);\n        \n        Applicant memory _applicant = applicants[vacancyVersion + _id];\n        address payable _applicantAddress = _applicant.applicant;\n        \n        _applicantAddress.transfer(msg.value);\n        _applicant.score = _applicant.score + msg.value;\n        \n        applicants[vacancyVersion + _id] = _applicant;\n    }\n    \n    function openVacancy() public onlyRole(ADMIN) {\n        require(!isOpen, \"Vacancy is already open\");\n\n        isOpen = true;\n        vacancyVersion += 3;\n        applicantCount = 0;\n\n        for (uint i=0; i< auxRegisteredUsers.length ; i++){\n            alreadyApplied[auxRegisteredUsers[i]] = false;\n        }\n    }\n    \n    function closeVacancy() public onlyRole(ADMIN) {\n        isOpen = false;\n    }\n}\n",
  "sourcePath": "/home/chris/Documents/University/RTVC/BAC/bac-vacancy-project/truffle/contracts/Vacancy.sol",
  "compiler": {
    "name": "solc",
    "version": "0.8.3+commit.8d00100c.Emscripten.clang"
  },
  "schemaVersion": "3.3.4",
  "updatedAt": "2021-05-28T23:38:24.201Z",
  "networkType": "ethereum",
  "devdoc": {
    "kind": "dev",
    "methods": {
      "getRoleAdmin(bytes32)": {
        "details": "Returns the admin role that controls `role`. See {grantRole} and {revokeRole}. To change a role's admin, use {_setRoleAdmin}."
      },
      "grantRole(bytes32,address)": {
        "details": "Grants `role` to `account`. If `account` had not been already granted `role`, emits a {RoleGranted} event. Requirements: - the caller must have ``role``'s admin role."
      },
      "hasRole(bytes32,address)": {
        "details": "Returns `true` if `account` has been granted `role`."
      },
      "renounceRole(bytes32,address)": {
        "details": "Revokes `role` from the calling account. Roles are often managed via {grantRole} and {revokeRole}: this function's purpose is to provide a mechanism for accounts to lose their privileges if they are compromised (such as when a trusted device is misplaced). If the calling account had been granted `role`, emits a {RoleRevoked} event. Requirements: - the caller must be `account`."
      },
      "revokeRole(bytes32,address)": {
        "details": "Revokes `role` from `account`. If `account` had been granted `role`, emits a {RoleRevoked} event. Requirements: - the caller must have ``role``'s admin role."
      },
      "supportsInterface(bytes4)": {
        "details": "See {IERC165-supportsInterface}."
      }
    },
    "version": 1
  },
  "userdoc": {
    "kind": "user",
    "methods": {},
    "version": 1
  }
}