{
  "contractName": "Vacancy",
  "abi": [
    {
      "inputs": [
        {
          "internalType": "string",
          "name": "_name",
          "type": "string"
        },
        {
          "internalType": "string",
          "name": "_description",
          "type": "string"
        },
        {
          "internalType": "uint256",
          "name": "_treshold",
          "type": "uint256"
        }
      ],
      "stateMutability": "nonpayable",
      "type": "constructor"
    },
    {
      "anonymous": false,
      "inputs": [
        {
          "indexed": false,
          "internalType": "address payable",
          "name": "applicant",
          "type": "address"
        },
        {
          "indexed": false,
          "internalType": "string",
          "name": "name",
          "type": "string"
        },
        {
          "indexed": false,
          "internalType": "string",
          "name": "bio",
          "type": "string"
        },
        {
          "indexed": false,
          "internalType": "string",
          "name": "skillsAchievementsInfo",
          "type": "string"
        },
        {
          "indexed": false,
          "internalType": "uint256",
          "name": "score",
          "type": "uint256"
        },
        {
          "indexed": false,
          "internalType": "int256",
          "name": "salary",
          "type": "int256"
        }
      ],
      "name": "ApplicantAdded",
      "type": "event"
    },
    {
      "anonymous": false,
      "inputs": [
        {
          "indexed": true,
          "internalType": "address",
          "name": "oldOwner",
          "type": "address"
        },
        {
          "indexed": true,
          "internalType": "address",
          "name": "newOwner",
          "type": "address"
        }
      ],
      "name": "OwnerSet",
      "type": "event"
    },
    {
      "inputs": [],
      "name": "admin",
      "outputs": [
        {
          "internalType": "address",
          "name": "",
          "type": "address"
        }
      ],
      "stateMutability": "view",
      "type": "function",
      "constant": true
    },
    {
      "inputs": [
        {
          "internalType": "address",
          "name": "",
          "type": "address"
        }
      ],
      "name": "alreadyApplied",
      "outputs": [
        {
          "internalType": "bool",
          "name": "",
          "type": "bool"
        }
      ],
      "stateMutability": "view",
      "type": "function",
      "constant": true
    },
    {
      "inputs": [],
      "name": "applicantCount",
      "outputs": [
        {
          "internalType": "uint256",
          "name": "",
          "type": "uint256"
        }
      ],
      "stateMutability": "view",
      "type": "function",
      "constant": true
    },
    {
      "inputs": [
        {
          "internalType": "uint256",
          "name": "",
          "type": "uint256"
        }
      ],
      "name": "applicants",
      "outputs": [
        {
          "internalType": "address payable",
          "name": "applicant",
          "type": "address"
        },
        {
          "internalType": "string",
          "name": "name",
          "type": "string"
        },
        {
          "internalType": "string",
          "name": "bio",
          "type": "string"
        },
        {
          "internalType": "string",
          "name": "skillsAchievementsInfo",
          "type": "string"
        },
        {
          "internalType": "uint256",
          "name": "score",
          "type": "uint256"
        },
        {
          "internalType": "int256",
          "name": "salary",
          "type": "int256"
        },
        {
          "internalType": "int256",
          "name": "currentEthValue",
          "type": "int256"
        }
      ],
      "stateMutability": "view",
      "type": "function",
      "constant": true
    },
    {
      "inputs": [],
      "name": "description",
      "outputs": [
        {
          "internalType": "string",
          "name": "",
          "type": "string"
        }
      ],
      "stateMutability": "view",
      "type": "function",
      "constant": true
    },
    {
      "inputs": [],
      "name": "ethSalary",
      "outputs": [
        {
          "internalType": "int256",
          "name": "",
          "type": "int256"
        }
      ],
      "stateMutability": "view",
      "type": "function",
      "constant": true
    },
    {
      "inputs": [
        {
          "internalType": "address",
          "name": "",
          "type": "address"
        }
      ],
      "name": "evaluators",
      "outputs": [
        {
          "internalType": "bool",
          "name": "",
          "type": "bool"
        }
      ],
      "stateMutability": "view",
      "type": "function",
      "constant": true
    },
    {
      "inputs": [],
      "name": "isOpen",
      "outputs": [
        {
          "internalType": "bool",
          "name": "",
          "type": "bool"
        }
      ],
      "stateMutability": "view",
      "type": "function",
      "constant": true
    },
    {
      "inputs": [],
      "name": "name",
      "outputs": [
        {
          "internalType": "string",
          "name": "",
          "type": "string"
        }
      ],
      "stateMutability": "view",
      "type": "function",
      "constant": true
    },
    {
      "inputs": [
        {
          "internalType": "address",
          "name": "",
          "type": "address"
        }
      ],
      "name": "registeredUsers",
      "outputs": [
        {
          "internalType": "bool",
          "name": "",
          "type": "bool"
        }
      ],
      "stateMutability": "view",
      "type": "function",
      "constant": true
    },
    {
      "inputs": [],
      "name": "treshold",
      "outputs": [
        {
          "internalType": "uint256",
          "name": "",
          "type": "uint256"
        }
      ],
      "stateMutability": "view",
      "type": "function",
      "constant": true
    },
    {
      "inputs": [],
      "name": "vacancyVersion",
      "outputs": [
        {
          "internalType": "uint256",
          "name": "",
          "type": "uint256"
        }
      ],
      "stateMutability": "view",
      "type": "function",
      "constant": true
    },
    {
      "inputs": [
        {
          "internalType": "address",
          "name": "_user",
          "type": "address"
        }
      ],
      "name": "registerAsUser",
      "outputs": [],
      "stateMutability": "nonpayable",
      "type": "function"
    },
    {
      "inputs": [
        {
          "internalType": "address",
          "name": "_evaluator",
          "type": "address"
        }
      ],
      "name": "registerAsEvaluator",
      "outputs": [],
      "stateMutability": "nonpayable",
      "type": "function"
    },
    {
      "inputs": [
        {
          "internalType": "string",
          "name": "_name",
          "type": "string"
        },
        {
          "internalType": "string",
          "name": "_bio",
          "type": "string"
        },
        {
          "internalType": "string",
          "name": "_skillsAchievementsInfo",
          "type": "string"
        },
        {
          "internalType": "int256",
          "name": "_salary",
          "type": "int256"
        }
      ],
      "name": "addApplicant",
      "outputs": [],
      "stateMutability": "nonpayable",
      "type": "function"
    },
    {
      "inputs": [
        {
          "internalType": "uint256",
          "name": "_id",
          "type": "uint256"
        }
      ],
      "name": "evaluateUser",
      "outputs": [],
      "stateMutability": "payable",
      "type": "function",
      "payable": true
    },
    {
      "inputs": [],
      "name": "openVacancy",
      "outputs": [],
      "stateMutability": "nonpayable",
      "type": "function"
    },
    {
      "inputs": [],
      "name": "closeVacancy",
      "outputs": [],
      "stateMutability": "nonpayable",
      "type": "function"
    }
  ],
  "bytecode": "0x60806040526001600760006101000a81548160ff021916908315150217905550600060085560006009553480156200003657600080fd5b506040516200234038038062002340833981810160405260608110156200005c57600080fd5b81019080805160405193929190846401000000008211156200007d57600080fd5b838201915060208201858111156200009457600080fd5b8251866001820283011164010000000082111715620000b257600080fd5b8083526020830192505050908051906020019080838360005b83811015620000e8578082015181840152602081019050620000cb565b50505050905090810190601f168015620001165780820380516001836020036101000a031916815260200191505b50604052602001805160405193929190846401000000008211156200013a57600080fd5b838201915060208201858111156200015157600080fd5b82518660018202830111640100000000821117156200016f57600080fd5b8083526020830192505050908051906020019080838360005b83811015620001a557808201518184015260208101905062000188565b50505050905090810190601f168015620001d35780820380516001836020036101000a031916815260200191505b5060405260200180519060200190929190505050336000806101000a81548173ffffffffffffffffffffffffffffffffffffffff021916908373ffffffffffffffffffffffffffffffffffffffff16021790555033600360006101000a81548173ffffffffffffffffffffffffffffffffffffffff021916908373ffffffffffffffffffffffffffffffffffffffff160217905550826004908051906020019062000280929190620002ff565b50816005908051906020019062000299929190620002ff565b5080600681905550739326bfa02add2366b30bacb125260af641031331600e60006101000a81548173ffffffffffffffffffffffffffffffffffffffff021916908373ffffffffffffffffffffffffffffffffffffffff160217905550505050620003a5565b828054600181600116156101000203166002900490600052602060002090601f016020900481019282601f106200034257805160ff191683800117855562000373565b8280016001018555821562000373579182015b828111156200037257825182559160200191906001019062000355565b5b50905062000382919062000386565b5090565b5b80821115620003a157600081600090555060010162000387565b5090565b611f8b80620003b56000396000f3fe6080604052600436106101095760003560e01c80637b097b8111610095578063d1fc92d411610064578063d1fc92d414610821578063d7ca9cd71461084f578063df9e6a6214610866578063e50d582c14610891578063f851a440146108f857610109565b80637b097b81146106ed57806380870c721461073e5780638e8129ae146107a5578063b33a75fb146107d057610109565b8063382512e8116100dc578063382512e81461024757806347535d7b1461027257806363de53231461029f578063709d878e1461045d5780637284e4161461065d57610109565b806306fdde031461010e5780630e50cee51461019e57806318f539931461020557806321e809a514610230575b600080fd5b34801561011a57600080fd5b50610123610939565b6040518080602001828103825283818151815260200191508051906020019080838360005b83811015610163578082015181840152602081019050610148565b50505050905090810190601f1680156101905780820380516001836020036101000a031916815260200191505b509250505060405180910390f35b3480156101aa57600080fd5b506101ed600480360360208110156101c157600080fd5b81019080803573ffffffffffffffffffffffffffffffffffffffff1690602001909291905050506109d7565b60405180821515815260200191505060405180910390f35b34801561021157600080fd5b5061021a6109f7565b6040518082815260200191505060405180910390f35b34801561023c57600080fd5b506102456109fd565b005b34801561025357600080fd5b5061025c610c07565b6040518082815260200191505060405180910390f35b34801561027e57600080fd5b50610287610c0d565b60405180821515815260200191505060405180910390f35b3480156102ab57600080fd5b506102d8600480360360208110156102c257600080fd5b8101908080359060200190929190505050610c20565b604051808873ffffffffffffffffffffffffffffffffffffffff16815260200180602001806020018060200187815260200186815260200185815260200184810384528a818151815260200191508051906020019080838360005b8381101561034e578082015181840152602081019050610333565b50505050905090810190601f16801561037b5780820380516001836020036101000a031916815260200191505b50848103835289818151815260200191508051906020019080838360005b838110156103b4578082015181840152602081019050610399565b50505050905090810190601f1680156103e15780820380516001836020036101000a031916815260200191505b50848103825288818151815260200191508051906020019080838360005b8381101561041a5780820151818401526020810190506103ff565b50505050905090810190601f1680156104475780820380516001836020036101000a031916815260200191505b509a505050505050505050505060405180910390f35b34801561046957600080fd5b5061065b6004803603608081101561048057600080fd5b810190808035906020019064010000000081111561049d57600080fd5b8201836020820111156104af57600080fd5b803590602001918460018302840111640100000000831117156104d157600080fd5b91908080601f016020809104026020016040519081016040528093929190818152602001838380828437600081840152601f19601f8201169050808301925050505050505091929192908035906020019064010000000081111561053457600080fd5b82018360208201111561054657600080fd5b8035906020019184600183028401116401000000008311171561056857600080fd5b91908080601f016020809104026020016040519081016040528093929190818152602001838380828437600081840152601f19601f820116905080830192505050505050509192919290803590602001906401000000008111156105cb57600080fd5b8201836020820111156105dd57600080fd5b803590602001918460018302840111640100000000831117156105ff57600080fd5b91908080601f016020809104026020016040519081016040528093929190818152602001838380828437600081840152601f19601f82011690508083019250505050505050919291929080359060200190929190505050610e4a565b005b34801561066957600080fd5b50610672611396565b6040518080602001828103825283818151815260200191508051906020019080838360005b838110156106b2578082015181840152602081019050610697565b50505050905090810190601f1680156106df5780820380516001836020036101000a031916815260200191505b509250505060405180910390f35b3480156106f957600080fd5b5061073c6004803603602081101561071057600080fd5b81019080803573ffffffffffffffffffffffffffffffffffffffff169060200190929190505050611434565b005b34801561074a57600080fd5b5061078d6004803603602081101561076157600080fd5b81019080803573ffffffffffffffffffffffffffffffffffffffff169060200190929190505050611573565b60405180821515815260200191505060405180910390f35b3480156107b157600080fd5b506107ba611593565b6040518082815260200191505060405180910390f35b3480156107dc57600080fd5b5061081f600480360360208110156107f357600080fd5b81019080803573ffffffffffffffffffffffffffffffffffffffff169060200190929190505050611599565b005b61084d6004803603602081101561083757600080fd5b8101908080359060200190929190505050611676565b005b34801561085b57600080fd5b50610864611bd1565b005b34801561087257600080fd5b5061087b611c92565b6040518082815260200191505060405180910390f35b34801561089d57600080fd5b506108e0600480360360208110156108b457600080fd5b81019080803573ffffffffffffffffffffffffffffffffffffffff169060200190929190505050611c98565b60405180821515815260200191505060405180910390f35b34801561090457600080fd5b5061090d611cb8565b604051808273ffffffffffffffffffffffffffffffffffffffff16815260200191505060405180910390f35b60048054600181600116156101000203166002900480601f0160208091040260200160405190810160405280929190818152602001828054600181600116156101000203166002900480156109cf5780601f106109a4576101008083540402835291602001916109cf565b820191906000526020600020905b8154815290600101906020018083116109b257829003601f168201915b505050505081565b60016020528060005260406000206000915054906101000a900460ff1681565b60085481565b60008054906101000a900473ffffffffffffffffffffffffffffffffffffffff1673ffffffffffffffffffffffffffffffffffffffff163373ffffffffffffffffffffffffffffffffffffffff1614610aa1576040517f08c379a0000000000000000000000000000000000000000000000000000000008152600401808060200182810382526021815260200180611f106021913960400191505060405180910390fd5b600760009054906101000a900460ff1615610b24576040517f08c379a00000000000000000000000000000000000000000000000000000000081526004018080602001828103825260178152602001807f566163616e637920697320616c7265616479206f70656e00000000000000000081525060200191505060405180910390fd5b6001600760006101000a81548160ff0219169083151502179055506003600960008282540192505081905550600060088190555060005b600c80549050811015610c04576000600b6000600c8481548110610b7b57fe5b9060005260206000200160009054906101000a900473ffffffffffffffffffffffffffffffffffffffff1673ffffffffffffffffffffffffffffffffffffffff1673ffffffffffffffffffffffffffffffffffffffff16815260200190815260200160002060006101000a81548160ff0219169083151502179055508080600101915050610b5b565b50565b60065481565b600760009054906101000a900460ff1681565b600a6020528060005260406000206000915090508060000160009054906101000a900473ffffffffffffffffffffffffffffffffffffffff1690806001018054600181600116156101000203166002900480601f016020809104026020016040519081016040528092919081815260200182805460018160011615610100020316600290048015610cf25780601f10610cc757610100808354040283529160200191610cf2565b820191906000526020600020905b815481529060010190602001808311610cd557829003601f168201915b505050505090806002018054600181600116156101000203166002900480601f016020809104026020016040519081016040528092919081815260200182805460018160011615610100020316600290048015610d905780601f10610d6557610100808354040283529160200191610d90565b820191906000526020600020905b815481529060010190602001808311610d7357829003601f168201915b505050505090806003018054600181600116156101000203166002900480601f016020809104026020016040519081016040528092919081815260200182805460018160011615610100020316600290048015610e2e5780601f10610e0357610100808354040283529160200191610e2e565b820191906000526020600020905b815481529060010190602001808311610e1157829003601f168201915b5050505050908060040154908060050154908060060154905087565b600160003373ffffffffffffffffffffffffffffffffffffffff1673ffffffffffffffffffffffffffffffffffffffff16815260200190815260200160002060009054906101000a900460ff16610eec576040517f08c379a000000000000000000000000000000000000000000000000000000000815260040180806020018281038252602c815260200180611ee4602c913960400191505060405180910390fd5b600760009054906101000a900460ff16610f6e576040517f08c379a00000000000000000000000000000000000000000000000000000000081526004018080602001828103825260138152602001807f566163616e6379206973206e6f74206f70656e0000000000000000000000000081525060200191505060405180910390fd5b600b60003373ffffffffffffffffffffffffffffffffffffffff1673ffffffffffffffffffffffffffffffffffffffff16815260200190815260200160002060009054906101000a900460ff161561102e576040517f08c379a000000000000000000000000000000000000000000000000000000000815260040180806020018281038252601d8152602001807f4170706c6963616e742068617320616c7265616479206170706c69656400000081525060200191505060405180910390fd5b600084511161103c57600080fd5b600083511161104a57600080fd5b600082511161105857600080fd5b6001600b60003373ffffffffffffffffffffffffffffffffffffffff1673ffffffffffffffffffffffffffffffffffffffff16815260200190815260200160002060006101000a81548160ff0219169083151502179055506008600081548092919060010191905055506040518060e001604052803373ffffffffffffffffffffffffffffffffffffffff16815260200185815260200184815260200183815260200160008152602001828152602001611110611cde565b815250600a600060085460095401815260200190815260200160002060008201518160000160006101000a81548173ffffffffffffffffffffffffffffffffffffffff021916908373ffffffffffffffffffffffffffffffffffffffff160217905550602082015181600101908051906020019061118f929190611dc7565b5060408201518160020190805190602001906111ac929190611dc7565b5060608201518160030190805190602001906111c9929190611dc7565b506080820151816004015560a0820151816005015560c082015181600601559050507f13a50ae59faa48374d2e6319a6b10b55a34eb5bc5009599e88c8eef82a88525333858585600086604051808773ffffffffffffffffffffffffffffffffffffffff168152602001806020018060200180602001868152602001858152602001848103845289818151815260200191508051906020019080838360005b83811015611283578082015181840152602081019050611268565b50505050905090810190601f1680156112b05780820380516001836020036101000a031916815260200191505b50848103835288818151815260200191508051906020019080838360005b838110156112e95780820151818401526020810190506112ce565b50505050905090810190601f1680156113165780820380516001836020036101000a031916815260200191505b50848103825287818151815260200191508051906020019080838360005b8381101561134f578082015181840152602081019050611334565b50505050905090810190601f16801561137c5780820380516001836020036101000a031916815260200191505b50995050505050505050505060405180910390a150505050565b60058054600181600116156101000203166002900480601f01602080910402602001604051908101604052809291908181526020018280546001816001161561010002031660029004801561142c5780601f106114015761010080835404028352916020019161142c565b820191906000526020600020905b81548152906001019060200180831161140f57829003601f168201915b505050505081565b600760009054906101000a900460ff166114b6576040517f08c379a00000000000000000000000000000000000000000000000000000000081526004018080602001828103825260138152602001807f566163616e6379206973206e6f74206f70656e0000000000000000000000000081525060200191505060405180910390fd5b60018060008373ffffffffffffffffffffffffffffffffffffffff1673ffffffffffffffffffffffffffffffffffffffff16815260200190815260200160002060006101000a81548160ff021916908315150217905550600c819080600181540180825580915050600190039060005260206000200160009091909190916101000a81548173ffffffffffffffffffffffffffffffffffffffff021916908373ffffffffffffffffffffffffffffffffffffffff16021790555050565b600b6020528060005260406000206000915054906101000a900460ff1681565b60095481565b600760009054906101000a900460ff1661161b576040517f08c379a00000000000000000000000000000000000000000000000000000000081526004018080602001828103825260138152602001807f566163616e6379206973206e6f74206f70656e0000000000000000000000000081525060200191505060405180910390fd5b6001600260008373ffffffffffffffffffffffffffffffffffffffff1673ffffffffffffffffffffffffffffffffffffffff16815260200190815260200160002060006101000a81548160ff02191690831515021790555050565b600260003373ffffffffffffffffffffffffffffffffffffffff1673ffffffffffffffffffffffffffffffffffffffff16815260200190815260200160002060009054906101000a900460ff16611718576040517f08c379a0000000000000000000000000000000000000000000000000000000008152600401808060200182810382526025815260200180611f316025913960400191505060405180910390fd5b600760009054906101000a900460ff1661179a576040517f08c379a00000000000000000000000000000000000000000000000000000000081526004018080602001828103825260138152602001807f566163616e6379206973206e6f74206f70656e0000000000000000000000000081525060200191505060405180910390fd5b60643411156117f4576040517f08c379a000000000000000000000000000000000000000000000000000000000815260040180806020018281038252602c815260200180611eb8602c913960400191505060405180910390fd5b60008111801561180657506008548111155b61180f57600080fd5b611817611e47565b600a6000836009540181526020019081526020016000206040518060e00160405290816000820160009054906101000a900473ffffffffffffffffffffffffffffffffffffffff1673ffffffffffffffffffffffffffffffffffffffff1673ffffffffffffffffffffffffffffffffffffffff168152602001600182018054600181600116156101000203166002900480601f0160208091040260200160405190810160405280929190818152602001828054600181600116156101000203166002900480156119285780601f106118fd57610100808354040283529160200191611928565b820191906000526020600020905b81548152906001019060200180831161190b57829003601f168201915b50505050508152602001600282018054600181600116156101000203166002900480601f0160208091040260200160405190810160405280929190818152602001828054600181600116156101000203166002900480156119ca5780601f1061199f576101008083540402835291602001916119ca565b820191906000526020600020905b8154815290600101906020018083116119ad57829003601f168201915b50505050508152602001600382018054600181600116156101000203166002900480601f016020809104026020016040519081016040528092919081815260200182805460018160011615610100020316600290048015611a6c5780601f10611a4157610100808354040283529160200191611a6c565b820191906000526020600020905b815481529060010190602001808311611a4f57829003601f168201915b50505050508152602001600482015481526020016005820154815260200160068201548152505090506000816000015190508073ffffffffffffffffffffffffffffffffffffffff166108fc349081150290604051600060405180830381858888f19350505050158015611ae4573d6000803e3d6000fd5b503482608001510182608001818152505081600a60008560095401815260200190815260200160002060008201518160000160006101000a81548173ffffffffffffffffffffffffffffffffffffffff021916908373ffffffffffffffffffffffffffffffffffffffff1602179055506020820151816001019080519060200190611b70929190611dc7565b506040820151816002019080519060200190611b8d929190611dc7565b506060820151816003019080519060200190611baa929190611dc7565b506080820151816004015560a0820151816005015560c08201518160060155905050505050565b60008054906101000a900473ffffffffffffffffffffffffffffffffffffffff1673ffffffffffffffffffffffffffffffffffffffff163373ffffffffffffffffffffffffffffffffffffffff1614611c75576040517f08c379a0000000000000000000000000000000000000000000000000000000008152600401808060200182810382526021815260200180611f106021913960400191505060405180910390fd5b6000600760006101000a81548160ff021916908315150217905550565b600d5481565b60026020528060005260406000206000915054906101000a900460ff1681565b600360009054906101000a900473ffffffffffffffffffffffffffffffffffffffff1681565b600080600080600080600e60009054906101000a900473ffffffffffffffffffffffffffffffffffffffff1673ffffffffffffffffffffffffffffffffffffffff1663feaf968c6040518163ffffffff1660e01b815260040160a06040518083038186803b158015611d4f57600080fd5b505afa158015611d63573d6000803e3d6000fd5b505050506040513d60a0811015611d7957600080fd5b81019080805190602001909291908051906020019092919080519060200190929190805190602001909291908051906020019092919050505094509450945094509450839550505050505090565b828054600181600116156101000203166002900490600052602060002090601f016020900481019282601f10611e0857805160ff1916838001178555611e36565b82800160010185558215611e36579182015b82811115611e35578251825591602001919060010190611e1a565b5b509050611e439190611e9a565b5090565b6040518060e00160405280600073ffffffffffffffffffffffffffffffffffffffff1681526020016060815260200160608152602001606081526020016000815260200160008152602001600081525090565b5b80821115611eb3576000816000905550600101611e9b565b509056fe4576616c7561746f722063616e206f6e6c792061737369676e206174206d6f73742031303020706f696e74734f6e6c7920726567697374657265642075736572732063616e20706572666f6d207468697320616374696f6e4f6e6c792061646d696e2063616e20706572666f6d207468697320616374696f6e4f6e6c79206576616c7561746f722063616e20706572666f6d207468697320616374696f6ea264697066735822122002588f9b786ca9d4364f928c32e16aedc857d5ad03853694e74db23a50f0764764736f6c63430007030033",
  "immutableReferences": {},
  "source": "// SPDX-License-Identifier: GPL-3.0\n\npragma solidity >=0.6.0 <0.8.0;\n\n/** \n * @title Vacancy\n * @dev Implements voting process in the applicant selection for an open vacancy\n */\n \nimport \"@chainlink/contracts/src/v0.6/interfaces/AggregatorV3Interface.sol\";\nimport \"./Authenticated.sol\";\n \ncontract Vacancy is Authenticated {\n    address public admin;\n    string public name;\n    string public description;\n    uint public treshold;\n    bool public isOpen = true;\n    uint256 public applicantCount = 0;\n    uint256 public vacancyVersion = 0;\n\n    mapping(uint256 => Applicant) public applicants;\n    mapping(address => bool) public alreadyApplied;\n    \n    address[] auxRegisteredUsers;\n\n    int256 public ethSalary;\n\n    // Oraculo\n    AggregatorV3Interface internal priceFeed;\n\n    struct Applicant {\n        address payable applicant;\n        string name;\n        string bio;\n        string skillsAchievementsInfo;\n        uint  score;\n        int256 salary;\n        int256 currentEthValue;\n    }\n\n    event ApplicantAdded(\n        address payable applicant,\n        string name,\n        string bio,\n        string skillsAchievementsInfo,\n        uint score,\n        int256 salary\n    );\n\n    constructor(string memory _name, string memory _description, uint _treshold) {\n        admin = msg.sender;\n        name = _name;\n        description = _description;\n        treshold = _treshold;\n        \n        priceFeed = AggregatorV3Interface(0x9326BFA02ADD2366b30bacB125260Af641031331);\n    }\n    \n    function getLatestPrice() internal view returns (int) {\n        (\n            uint80 roundID, \n            int price,\n            uint startedAt,\n            uint timeStamp,\n            uint80 answeredInRound\n        ) = priceFeed.latestRoundData();\n        return price;\n    }\n    \n    function registerAsUser(address _user) public {\n        require(isOpen, \"Vacancy is not open\");\n        registeredUsers[_user] = true;\n        auxRegisteredUsers.push(_user);\n    }\n    \n    function registerAsEvaluator(address _evaluator) public {\n        require(isOpen, \"Vacancy is not open\");\n        evaluators[_evaluator] = true;\n    }\n\n    function addApplicant(string memory _name, string memory _bio, string memory _skillsAchievementsInfo, int256 _salary) public onlyRegisteredUser {\n        require(isOpen, \"Vacancy is not open\");\n        require(!alreadyApplied[msg.sender], \"Applicant has already applied\");\n        require(bytes(_name).length > 0);\n        require(bytes(_bio).length > 0);\n        require(bytes(_skillsAchievementsInfo).length > 0);\n        \n        alreadyApplied[msg.sender] = true;\n        \n        applicantCount++;\n        applicants[vacancyVersion + applicantCount] = Applicant(payable(msg.sender), _name, _bio, _skillsAchievementsInfo, 0, _salary, getLatestPrice());\n        emit ApplicantAdded(payable(msg.sender), _name, _bio, _skillsAchievementsInfo, 0, _salary);\n    }\n\n    function evaluateUser(uint256 _id) public payable onlyEvaluator {\n        require(isOpen, \"Vacancy is not open\");\n        require(msg.value <= 100, \"Evaluator can only assign at most 100 points\");\n        \n        require(_id > 0 && _id <= applicantCount);\n        \n        Applicant memory _applicant = applicants[vacancyVersion + _id];\n        address payable _applicantAddress = _applicant.applicant;\n        \n        _applicantAddress.transfer(msg.value);\n        _applicant.score = _applicant.score + msg.value;\n        \n        applicants[vacancyVersion + _id] = _applicant;\n    }\n    \n    function openVacancy() public onlyAdmin {\n        require(!isOpen, \"Vacancy is already open\");\n\n        isOpen = true;\n        vacancyVersion += 3;\n        applicantCount = 0;\n\n        for (uint i=0; i< auxRegisteredUsers.length ; i++){\n            alreadyApplied[auxRegisteredUsers[i]] = false;\n        }\n    }\n    \n    function closeVacancy() public onlyAdmin {\n        isOpen = false;\n    }\n}\n",
  "sourcePath": "/home/chris/Documents/University/RTVC/BAC/bac-vacancy-project/truffle/contracts/Vacancy.sol",
  "compiler": {
    "name": "solc",
    "version": "0.7.3+commit.9bfce1f6.Emscripten.clang"
  },
  "schemaVersion": "3.3.4",
  "updatedAt": "2021-05-28T03:38:47.680Z",
  "networkType": "ethereum",
  "devdoc": {
    "kind": "dev",
    "methods": {},
    "version": 1
  },
  "userdoc": {
    "kind": "user",
    "methods": {},
    "version": 1
  }
}