{
  "contractName": "Vacancy",
  "abi": [
    {
      "inputs": [
        {
          "internalType": "string",
          "name": "_name",
          "type": "string"
        },
        {
          "internalType": "string",
          "name": "_description",
          "type": "string"
        },
        {
          "internalType": "uint256",
          "name": "_treshold",
          "type": "uint256"
        }
      ],
      "stateMutability": "nonpayable",
      "type": "constructor"
    },
    {
      "anonymous": false,
      "inputs": [
        {
          "indexed": false,
          "internalType": "address payable",
          "name": "applicant",
          "type": "address"
        },
        {
          "indexed": false,
          "internalType": "string",
          "name": "name",
          "type": "string"
        },
        {
          "indexed": false,
          "internalType": "string",
          "name": "bio",
          "type": "string"
        },
        {
          "indexed": false,
          "internalType": "string",
          "name": "skillsAchievementsInfo",
          "type": "string"
        },
        {
          "indexed": false,
          "internalType": "uint256",
          "name": "score",
          "type": "uint256"
        },
        {
          "indexed": false,
          "internalType": "int256",
          "name": "salary",
          "type": "int256"
        }
      ],
      "name": "ApplicantAdded",
      "type": "event"
    },
    {
      "anonymous": false,
      "inputs": [
        {
          "indexed": true,
          "internalType": "address",
          "name": "oldOwner",
          "type": "address"
        },
        {
          "indexed": true,
          "internalType": "address",
          "name": "newOwner",
          "type": "address"
        }
      ],
      "name": "OwnerSet",
      "type": "event"
    },
    {
      "inputs": [],
      "name": "admin",
      "outputs": [
        {
          "internalType": "address",
          "name": "",
          "type": "address"
        }
      ],
      "stateMutability": "view",
      "type": "function",
      "constant": true
    },
    {
      "inputs": [
        {
          "internalType": "address",
          "name": "",
          "type": "address"
        }
      ],
      "name": "alreadyApplied",
      "outputs": [
        {
          "internalType": "bool",
          "name": "",
          "type": "bool"
        }
      ],
      "stateMutability": "view",
      "type": "function",
      "constant": true
    },
    {
      "inputs": [],
      "name": "applicantCount",
      "outputs": [
        {
          "internalType": "uint256",
          "name": "",
          "type": "uint256"
        }
      ],
      "stateMutability": "view",
      "type": "function",
      "constant": true
    },
    {
      "inputs": [
        {
          "internalType": "uint256",
          "name": "",
          "type": "uint256"
        }
      ],
      "name": "applicants",
      "outputs": [
        {
          "internalType": "address payable",
          "name": "applicant",
          "type": "address"
        },
        {
          "internalType": "string",
          "name": "name",
          "type": "string"
        },
        {
          "internalType": "string",
          "name": "bio",
          "type": "string"
        },
        {
          "internalType": "string",
          "name": "skillsAchievementsInfo",
          "type": "string"
        },
        {
          "internalType": "uint256",
          "name": "score",
          "type": "uint256"
        },
        {
          "internalType": "int256",
          "name": "salary",
          "type": "int256"
        },
        {
          "internalType": "int256",
          "name": "currentEthValue",
          "type": "int256"
        }
      ],
      "stateMutability": "view",
      "type": "function",
      "constant": true
    },
    {
      "inputs": [],
      "name": "description",
      "outputs": [
        {
          "internalType": "string",
          "name": "",
          "type": "string"
        }
      ],
      "stateMutability": "view",
      "type": "function",
      "constant": true
    },
    {
      "inputs": [],
      "name": "ethSalary",
      "outputs": [
        {
          "internalType": "int256",
          "name": "",
          "type": "int256"
        }
      ],
      "stateMutability": "view",
      "type": "function",
      "constant": true
    },
    {
      "inputs": [
        {
          "internalType": "address",
          "name": "",
          "type": "address"
        }
      ],
      "name": "evaluators",
      "outputs": [
        {
          "internalType": "bool",
          "name": "",
          "type": "bool"
        }
      ],
      "stateMutability": "view",
      "type": "function",
      "constant": true
    },
    {
      "inputs": [],
      "name": "isOpen",
      "outputs": [
        {
          "internalType": "bool",
          "name": "",
          "type": "bool"
        }
      ],
      "stateMutability": "view",
      "type": "function",
      "constant": true
    },
    {
      "inputs": [],
      "name": "name",
      "outputs": [
        {
          "internalType": "string",
          "name": "",
          "type": "string"
        }
      ],
      "stateMutability": "view",
      "type": "function",
      "constant": true
    },
    {
      "inputs": [
        {
          "internalType": "address",
          "name": "",
          "type": "address"
        }
      ],
      "name": "registeredUsers",
      "outputs": [
        {
          "internalType": "bool",
          "name": "",
          "type": "bool"
        }
      ],
      "stateMutability": "view",
      "type": "function",
      "constant": true
    },
    {
      "inputs": [],
      "name": "treshold",
      "outputs": [
        {
          "internalType": "uint256",
          "name": "",
          "type": "uint256"
        }
      ],
      "stateMutability": "view",
      "type": "function",
      "constant": true
    },
    {
      "inputs": [],
      "name": "vacancyVersion",
      "outputs": [
        {
          "internalType": "uint256",
          "name": "",
          "type": "uint256"
        }
      ],
      "stateMutability": "view",
      "type": "function",
      "constant": true
    },
    {
      "inputs": [
        {
          "internalType": "address",
          "name": "_user",
          "type": "address"
        }
      ],
      "name": "registerUser",
      "outputs": [],
      "stateMutability": "nonpayable",
      "type": "function"
    },
    {
      "inputs": [
        {
          "internalType": "address",
          "name": "_evaluator",
          "type": "address"
        }
      ],
      "name": "addEvaluator",
      "outputs": [],
      "stateMutability": "nonpayable",
      "type": "function"
    },
    {
      "inputs": [
        {
          "internalType": "string",
          "name": "_name",
          "type": "string"
        },
        {
          "internalType": "string",
          "name": "_bio",
          "type": "string"
        },
        {
          "internalType": "string",
          "name": "_skillsAchievementsInfo",
          "type": "string"
        },
        {
          "internalType": "int256",
          "name": "_salary",
          "type": "int256"
        }
      ],
      "name": "addApplicant",
      "outputs": [],
      "stateMutability": "nonpayable",
      "type": "function"
    },
    {
      "inputs": [
        {
          "internalType": "uint256",
          "name": "_id",
          "type": "uint256"
        }
      ],
      "name": "evaluateUser",
      "outputs": [],
      "stateMutability": "payable",
      "type": "function",
      "payable": true
    },
    {
      "inputs": [],
      "name": "openVacancy",
      "outputs": [],
      "stateMutability": "nonpayable",
      "type": "function"
    },
    {
      "inputs": [],
      "name": "closeVacancy",
      "outputs": [],
      "stateMutability": "nonpayable",
      "type": "function"
    }
  ],
  "bytecode": "0x60806040526001600760006101000a81548160ff021916908315150217905550600060085560006009553480156200003657600080fd5b506040516200248838038062002488833981810160405260608110156200005c57600080fd5b81019080805160405193929190846401000000008211156200007d57600080fd5b838201915060208201858111156200009457600080fd5b8251866001820283011164010000000082111715620000b257600080fd5b8083526020830192505050908051906020019080838360005b83811015620000e8578082015181840152602081019050620000cb565b50505050905090810190601f168015620001165780820380516001836020036101000a031916815260200191505b50604052602001805160405193929190846401000000008211156200013a57600080fd5b838201915060208201858111156200015157600080fd5b82518660018202830111640100000000821117156200016f57600080fd5b8083526020830192505050908051906020019080838360005b83811015620001a557808201518184015260208101905062000188565b50505050905090810190601f168015620001d35780820380516001836020036101000a031916815260200191505b5060405260200180519060200190929190505050336000806101000a81548173ffffffffffffffffffffffffffffffffffffffff021916908373ffffffffffffffffffffffffffffffffffffffff16021790555033600360006101000a81548173ffffffffffffffffffffffffffffffffffffffff021916908373ffffffffffffffffffffffffffffffffffffffff160217905550826004908051906020019062000280929190620002ff565b50816005908051906020019062000299929190620002ff565b5080600681905550739326bfa02add2366b30bacb125260af641031331600e60006101000a81548173ffffffffffffffffffffffffffffffffffffffff021916908373ffffffffffffffffffffffffffffffffffffffff160217905550505050620003a5565b828054600181600116156101000203166002900490600052602060002090601f016020900481019282601f106200034257805160ff191683800117855562000373565b8280016001018555821562000373579182015b828111156200037257825182559160200191906001019062000355565b5b50905062000382919062000386565b5090565b5b80821115620003a157600081600090555060010162000387565b5090565b6120d380620003b56000396000f3fe6080604052600436106101095760003560e01c80637284e41611610095578063d7ca9cd711610064578063d7ca9cd7146107fe578063df9e6a6214610815578063e50d582c14610840578063eb26e5f0146108a7578063f851a440146108f857610109565b80637284e416146106ae57806380870c721461073e5780638e8129ae146107a5578063d1fc92d4146107d057610109565b806321e809a5116100dc57806321e809a514610281578063382512e81461029857806347535d7b146102c357806363de5323146102f0578063709d878e146104ae57610109565b806306fdde031461010e5780630e50cee51461019e57806318f53993146102055780632199d5cd14610230575b600080fd5b34801561011a57600080fd5b50610123610939565b6040518080602001828103825283818151815260200191508051906020019080838360005b83811015610163578082015181840152602081019050610148565b50505050905090810190601f1680156101905780820380516001836020036101000a031916815260200191505b509250505060405180910390f35b3480156101aa57600080fd5b506101ed600480360360208110156101c157600080fd5b81019080803573ffffffffffffffffffffffffffffffffffffffff1690602001909291905050506109d7565b60405180821515815260200191505060405180910390f35b34801561021157600080fd5b5061021a6109f7565b6040518082815260200191505060405180910390f35b34801561023c57600080fd5b5061027f6004803603602081101561025357600080fd5b81019080803573ffffffffffffffffffffffffffffffffffffffff1690602001909291905050506109fd565b005b34801561028d57600080fd5b50610296610be0565b005b3480156102a457600080fd5b506102ad610dea565b6040518082815260200191505060405180910390f35b3480156102cf57600080fd5b506102d8610df0565b60405180821515815260200191505060405180910390f35b3480156102fc57600080fd5b506103296004803603602081101561031357600080fd5b8101908080359060200190929190505050610e03565b604051808873ffffffffffffffffffffffffffffffffffffffff16815260200180602001806020018060200187815260200186815260200185815260200184810384528a818151815260200191508051906020019080838360005b8381101561039f578082015181840152602081019050610384565b50505050905090810190601f1680156103cc5780820380516001836020036101000a031916815260200191505b50848103835289818151815260200191508051906020019080838360005b838110156104055780820151818401526020810190506103ea565b50505050905090810190601f1680156104325780820380516001836020036101000a031916815260200191505b50848103825288818151815260200191508051906020019080838360005b8381101561046b578082015181840152602081019050610450565b50505050905090810190601f1680156104985780820380516001836020036101000a031916815260200191505b509a505050505050505050505060405180910390f35b3480156104ba57600080fd5b506106ac600480360360808110156104d157600080fd5b81019080803590602001906401000000008111156104ee57600080fd5b82018360208201111561050057600080fd5b8035906020019184600183028401116401000000008311171561052257600080fd5b91908080601f016020809104026020016040519081016040528093929190818152602001838380828437600081840152601f19601f8201169050808301925050505050505091929192908035906020019064010000000081111561058557600080fd5b82018360208201111561059757600080fd5b803590602001918460018302840111640100000000831117156105b957600080fd5b91908080601f016020809104026020016040519081016040528093929190818152602001838380828437600081840152601f19601f8201169050808301925050505050505091929192908035906020019064010000000081111561061c57600080fd5b82018360208201111561062e57600080fd5b8035906020019184600183028401116401000000008311171561065057600080fd5b91908080601f016020809104026020016040519081016040528093929190818152602001838380828437600081840152601f19601f8201169050808301925050505050505091929192908035906020019092919050505061102d565b005b3480156106ba57600080fd5b506106c3611579565b6040518080602001828103825283818151815260200191508051906020019080838360005b838110156107035780820151818401526020810190506106e8565b50505050905090810190601f1680156107305780820380516001836020036101000a031916815260200191505b509250505060405180910390f35b34801561074a57600080fd5b5061078d6004803603602081101561076157600080fd5b81019080803573ffffffffffffffffffffffffffffffffffffffff169060200190929190505050611617565b60405180821515815260200191505060405180910390f35b3480156107b157600080fd5b506107ba611637565b6040518082815260200191505060405180910390f35b6107fc600480360360208110156107e657600080fd5b810190808035906020019092919050505061163d565b005b34801561080a57600080fd5b50610813611b98565b005b34801561082157600080fd5b5061082a611c59565b6040518082815260200191505060405180910390f35b34801561084c57600080fd5b5061088f6004803603602081101561086357600080fd5b81019080803573ffffffffffffffffffffffffffffffffffffffff169060200190929190505050611c5f565b60405180821515815260200191505060405180910390f35b3480156108b357600080fd5b506108f6600480360360208110156108ca57600080fd5b81019080803573ffffffffffffffffffffffffffffffffffffffff169060200190929190505050611c7f565b005b34801561090457600080fd5b5061090d611e00565b604051808273ffffffffffffffffffffffffffffffffffffffff16815260200191505060405180910390f35b60048054600181600116156101000203166002900480601f0160208091040260200160405190810160405280929190818152602001828054600181600116156101000203166002900480156109cf5780601f106109a4576101008083540402835291602001916109cf565b820191906000526020600020905b8154815290600101906020018083116109b257829003601f168201915b505050505081565b60016020528060005260406000206000915054906101000a900460ff1681565b60085481565b60008054906101000a900473ffffffffffffffffffffffffffffffffffffffff1673ffffffffffffffffffffffffffffffffffffffff163373ffffffffffffffffffffffffffffffffffffffff1614610aa1576040517f08c379a00000000000000000000000000000000000000000000000000000000081526004018080602001828103825260218152602001806120586021913960400191505060405180910390fd5b600760009054906101000a900460ff16610b23576040517f08c379a00000000000000000000000000000000000000000000000000000000081526004018080602001828103825260138152602001807f566163616e6379206973206e6f74206f70656e0000000000000000000000000081525060200191505060405180910390fd5b60018060008373ffffffffffffffffffffffffffffffffffffffff1673ffffffffffffffffffffffffffffffffffffffff16815260200190815260200160002060006101000a81548160ff021916908315150217905550600c819080600181540180825580915050600190039060005260206000200160009091909190916101000a81548173ffffffffffffffffffffffffffffffffffffffff021916908373ffffffffffffffffffffffffffffffffffffffff16021790555050565b60008054906101000a900473ffffffffffffffffffffffffffffffffffffffff1673ffffffffffffffffffffffffffffffffffffffff163373ffffffffffffffffffffffffffffffffffffffff1614610c84576040517f08c379a00000000000000000000000000000000000000000000000000000000081526004018080602001828103825260218152602001806120586021913960400191505060405180910390fd5b600760009054906101000a900460ff1615610d07576040517f08c379a00000000000000000000000000000000000000000000000000000000081526004018080602001828103825260178152602001807f566163616e637920697320616c7265616479206f70656e00000000000000000081525060200191505060405180910390fd5b6001600760006101000a81548160ff0219169083151502179055506003600960008282540192505081905550600060088190555060005b600c80549050811015610de7576000600b6000600c8481548110610d5e57fe5b9060005260206000200160009054906101000a900473ffffffffffffffffffffffffffffffffffffffff1673ffffffffffffffffffffffffffffffffffffffff1673ffffffffffffffffffffffffffffffffffffffff16815260200190815260200160002060006101000a81548160ff0219169083151502179055508080600101915050610d3e565b50565b60065481565b600760009054906101000a900460ff1681565b600a6020528060005260406000206000915090508060000160009054906101000a900473ffffffffffffffffffffffffffffffffffffffff1690806001018054600181600116156101000203166002900480601f016020809104026020016040519081016040528092919081815260200182805460018160011615610100020316600290048015610ed55780601f10610eaa57610100808354040283529160200191610ed5565b820191906000526020600020905b815481529060010190602001808311610eb857829003601f168201915b505050505090806002018054600181600116156101000203166002900480601f016020809104026020016040519081016040528092919081815260200182805460018160011615610100020316600290048015610f735780601f10610f4857610100808354040283529160200191610f73565b820191906000526020600020905b815481529060010190602001808311610f5657829003601f168201915b505050505090806003018054600181600116156101000203166002900480601f0160208091040260200160405190810160405280929190818152602001828054600181600116156101000203166002900480156110115780601f10610fe657610100808354040283529160200191611011565b820191906000526020600020905b815481529060010190602001808311610ff457829003601f168201915b5050505050908060040154908060050154908060060154905087565b600160003373ffffffffffffffffffffffffffffffffffffffff1673ffffffffffffffffffffffffffffffffffffffff16815260200190815260200160002060009054906101000a900460ff166110cf576040517f08c379a000000000000000000000000000000000000000000000000000000000815260040180806020018281038252602c81526020018061202c602c913960400191505060405180910390fd5b600760009054906101000a900460ff16611151576040517f08c379a00000000000000000000000000000000000000000000000000000000081526004018080602001828103825260138152602001807f566163616e6379206973206e6f74206f70656e0000000000000000000000000081525060200191505060405180910390fd5b600b60003373ffffffffffffffffffffffffffffffffffffffff1673ffffffffffffffffffffffffffffffffffffffff16815260200190815260200160002060009054906101000a900460ff1615611211576040517f08c379a000000000000000000000000000000000000000000000000000000000815260040180806020018281038252601d8152602001807f4170706c6963616e742068617320616c7265616479206170706c69656400000081525060200191505060405180910390fd5b600084511161121f57600080fd5b600083511161122d57600080fd5b600082511161123b57600080fd5b6001600b60003373ffffffffffffffffffffffffffffffffffffffff1673ffffffffffffffffffffffffffffffffffffffff16815260200190815260200160002060006101000a81548160ff0219169083151502179055506008600081548092919060010191905055506040518060e001604052803373ffffffffffffffffffffffffffffffffffffffff168152602001858152602001848152602001838152602001600081526020018281526020016112f3611e26565b815250600a600060085460095401815260200190815260200160002060008201518160000160006101000a81548173ffffffffffffffffffffffffffffffffffffffff021916908373ffffffffffffffffffffffffffffffffffffffff1602179055506020820151816001019080519060200190611372929190611f0f565b50604082015181600201908051906020019061138f929190611f0f565b5060608201518160030190805190602001906113ac929190611f0f565b506080820151816004015560a0820151816005015560c082015181600601559050507f13a50ae59faa48374d2e6319a6b10b55a34eb5bc5009599e88c8eef82a88525333858585600086604051808773ffffffffffffffffffffffffffffffffffffffff168152602001806020018060200180602001868152602001858152602001848103845289818151815260200191508051906020019080838360005b8381101561146657808201518184015260208101905061144b565b50505050905090810190601f1680156114935780820380516001836020036101000a031916815260200191505b50848103835288818151815260200191508051906020019080838360005b838110156114cc5780820151818401526020810190506114b1565b50505050905090810190601f1680156114f95780820380516001836020036101000a031916815260200191505b50848103825287818151815260200191508051906020019080838360005b83811015611532578082015181840152602081019050611517565b50505050905090810190601f16801561155f5780820380516001836020036101000a031916815260200191505b50995050505050505050505060405180910390a150505050565b60058054600181600116156101000203166002900480601f01602080910402602001604051908101604052809291908181526020018280546001816001161561010002031660029004801561160f5780601f106115e45761010080835404028352916020019161160f565b820191906000526020600020905b8154815290600101906020018083116115f257829003601f168201915b505050505081565b600b6020528060005260406000206000915054906101000a900460ff1681565b60095481565b600260003373ffffffffffffffffffffffffffffffffffffffff1673ffffffffffffffffffffffffffffffffffffffff16815260200190815260200160002060009054906101000a900460ff166116df576040517f08c379a00000000000000000000000000000000000000000000000000000000081526004018080602001828103825260258152602001806120796025913960400191505060405180910390fd5b600760009054906101000a900460ff16611761576040517f08c379a00000000000000000000000000000000000000000000000000000000081526004018080602001828103825260138152602001807f566163616e6379206973206e6f74206f70656e0000000000000000000000000081525060200191505060405180910390fd5b60643411156117bb576040517f08c379a000000000000000000000000000000000000000000000000000000000815260040180806020018281038252602c815260200180612000602c913960400191505060405180910390fd5b6000811180156117cd57506008548111155b6117d657600080fd5b6117de611f8f565b600a6000836009540181526020019081526020016000206040518060e00160405290816000820160009054906101000a900473ffffffffffffffffffffffffffffffffffffffff1673ffffffffffffffffffffffffffffffffffffffff1673ffffffffffffffffffffffffffffffffffffffff168152602001600182018054600181600116156101000203166002900480601f0160208091040260200160405190810160405280929190818152602001828054600181600116156101000203166002900480156118ef5780601f106118c4576101008083540402835291602001916118ef565b820191906000526020600020905b8154815290600101906020018083116118d257829003601f168201915b50505050508152602001600282018054600181600116156101000203166002900480601f0160208091040260200160405190810160405280929190818152602001828054600181600116156101000203166002900480156119915780601f1061196657610100808354040283529160200191611991565b820191906000526020600020905b81548152906001019060200180831161197457829003601f168201915b50505050508152602001600382018054600181600116156101000203166002900480601f016020809104026020016040519081016040528092919081815260200182805460018160011615610100020316600290048015611a335780601f10611a0857610100808354040283529160200191611a33565b820191906000526020600020905b815481529060010190602001808311611a1657829003601f168201915b50505050508152602001600482015481526020016005820154815260200160068201548152505090506000816000015190508073ffffffffffffffffffffffffffffffffffffffff166108fc349081150290604051600060405180830381858888f19350505050158015611aab573d6000803e3d6000fd5b503482608001510182608001818152505081600a60008560095401815260200190815260200160002060008201518160000160006101000a81548173ffffffffffffffffffffffffffffffffffffffff021916908373ffffffffffffffffffffffffffffffffffffffff1602179055506020820151816001019080519060200190611b37929190611f0f565b506040820151816002019080519060200190611b54929190611f0f565b506060820151816003019080519060200190611b71929190611f0f565b506080820151816004015560a0820151816005015560c08201518160060155905050505050565b60008054906101000a900473ffffffffffffffffffffffffffffffffffffffff1673ffffffffffffffffffffffffffffffffffffffff163373ffffffffffffffffffffffffffffffffffffffff1614611c3c576040517f08c379a00000000000000000000000000000000000000000000000000000000081526004018080602001828103825260218152602001806120586021913960400191505060405180910390fd5b6000600760006101000a81548160ff021916908315150217905550565b600d5481565b60026020528060005260406000206000915054906101000a900460ff1681565b60008054906101000a900473ffffffffffffffffffffffffffffffffffffffff1673ffffffffffffffffffffffffffffffffffffffff163373ffffffffffffffffffffffffffffffffffffffff1614611d23576040517f08c379a00000000000000000000000000000000000000000000000000000000081526004018080602001828103825260218152602001806120586021913960400191505060405180910390fd5b600760009054906101000a900460ff16611da5576040517f08c379a00000000000000000000000000000000000000000000000000000000081526004018080602001828103825260138152602001807f566163616e6379206973206e6f74206f70656e0000000000000000000000000081525060200191505060405180910390fd5b6001600260008373ffffffffffffffffffffffffffffffffffffffff1673ffffffffffffffffffffffffffffffffffffffff16815260200190815260200160002060006101000a81548160ff02191690831515021790555050565b600360009054906101000a900473ffffffffffffffffffffffffffffffffffffffff1681565b600080600080600080600e60009054906101000a900473ffffffffffffffffffffffffffffffffffffffff1673ffffffffffffffffffffffffffffffffffffffff1663feaf968c6040518163ffffffff1660e01b815260040160a06040518083038186803b158015611e9757600080fd5b505afa158015611eab573d6000803e3d6000fd5b505050506040513d60a0811015611ec157600080fd5b81019080805190602001909291908051906020019092919080519060200190929190805190602001909291908051906020019092919050505094509450945094509450839550505050505090565b828054600181600116156101000203166002900490600052602060002090601f016020900481019282601f10611f5057805160ff1916838001178555611f7e565b82800160010185558215611f7e579182015b82811115611f7d578251825591602001919060010190611f62565b5b509050611f8b9190611fe2565b5090565b6040518060e00160405280600073ffffffffffffffffffffffffffffffffffffffff1681526020016060815260200160608152602001606081526020016000815260200160008152602001600081525090565b5b80821115611ffb576000816000905550600101611fe3565b509056fe4576616c7561746f722063616e206f6e6c792061737369676e206174206d6f73742031303020706f696e74734f6e6c7920726567697374657265642075736572732063616e20706572666f6d207468697320616374696f6e4f6e6c792061646d696e2063616e20706572666f6d207468697320616374696f6e4f6e6c79206576616c7561746f722063616e20706572666f6d207468697320616374696f6ea26469706673582212201bf908706c3b894cd67a7c06226a0ffd1f30b13647cb7b7a815010654b6cdc0f64736f6c63430007030033",
  "immutableReferences": {},
  "source": "// SPDX-License-Identifier: GPL-3.0\n\npragma solidity >=0.6.0 <0.8.0;\n\n/** \n * @title Vacancy\n * @dev Implements voting process in the applicant selection for an open vacancy\n */\n \nimport \"@chainlink/contracts/src/v0.6/interfaces/AggregatorV3Interface.sol\";\nimport \"./Authenticated.sol\";\n \ncontract Vacancy is Authenticated {\n    address public admin;\n    string public name;\n    string public description;\n    uint public treshold;\n    bool public isOpen = true;\n    uint256 public applicantCount = 0;\n    uint256 public vacancyVersion = 0;\n\n\n    mapping(uint256 => Applicant) public applicants;\n    mapping(address => bool) public alreadyApplied;\n    \n    address[] auxRegisteredUsers;\n\n    int256 public ethSalary;\n\n    // Oraculo\n    AggregatorV3Interface internal priceFeed;\n\n    struct Applicant {\n        address payable applicant;\n        string name;\n        string bio;\n        string skillsAchievementsInfo;\n        uint  score;\n        int256 salary;\n        int256 currentEthValue;\n    }\n\n    event ApplicantAdded(\n        address payable applicant,\n        string name,\n        string bio,\n        string skillsAchievementsInfo,\n        uint score,\n        int256 salary\n    );\n\n    constructor(string memory _name, string memory _description, uint _treshold) {\n        admin = msg.sender;\n        name = _name;\n        description = _description;\n        treshold = _treshold;\n        \n        priceFeed = AggregatorV3Interface(0x9326BFA02ADD2366b30bacB125260Af641031331);\n    }\n    \n    function getLatestPrice() internal view returns (int) {\n        (\n            uint80 roundID, \n            int price,\n            uint startedAt,\n            uint timeStamp,\n            uint80 answeredInRound\n        ) = priceFeed.latestRoundData();\n        return price;\n    }\n    \n    function registerUser(address _user) onlyAdmin public {\n        require(isOpen, \"Vacancy is not open\");\n        registeredUsers[_user] = true;\n        auxRegisteredUsers.push(_user);\n    }\n    \n    function addEvaluator(address _evaluator) onlyAdmin public {\n        require(isOpen, \"Vacancy is not open\");\n        evaluators[_evaluator] = true;\n    }\n\n    function addApplicant(string memory _name, string memory _bio, string memory _skillsAchievementsInfo, int256 _salary) public onlyRegisteredUser {\n        require(isOpen, \"Vacancy is not open\");\n        require(!alreadyApplied[msg.sender], \"Applicant has already applied\");\n        require(bytes(_name).length > 0);\n        require(bytes(_bio).length > 0);\n        require(bytes(_skillsAchievementsInfo).length > 0);\n        \n        alreadyApplied[msg.sender] = true;\n        \n        applicantCount++;\n        applicants[vacancyVersion + applicantCount] = Applicant(payable(msg.sender), _name, _bio, _skillsAchievementsInfo, 0, _salary, getLatestPrice());\n        emit ApplicantAdded(payable(msg.sender), _name, _bio, _skillsAchievementsInfo, 0, _salary);\n    }\n\n    function evaluateUser(uint256 _id) public payable onlyEvaluator {\n        require(isOpen, \"Vacancy is not open\");\n        require(msg.value <= 100, \"Evaluator can only assign at most 100 points\");\n        \n        require(_id > 0 && _id <= applicantCount);\n        \n        Applicant memory _applicant = applicants[vacancyVersion + _id];\n        address payable _applicantAddress = _applicant.applicant;\n        \n        _applicantAddress.transfer(msg.value);\n        _applicant.score = _applicant.score + msg.value;\n        \n        applicants[vacancyVersion + _id] = _applicant;\n    }\n    \n    function openVacancy() public onlyAdmin {\n        require(!isOpen, \"Vacancy is already open\");\n\n        isOpen = true;\n        vacancyVersion += 3;\n        applicantCount = 0;\n\n        for (uint i=0; i< auxRegisteredUsers.length ; i++){\n            alreadyApplied[auxRegisteredUsers[i]] = false;\n        }\n    }\n    \n    function closeVacancy() public onlyAdmin {\n        isOpen = false;\n    }\n}\n",
  "sourcePath": "/home/chris/Documents/University/RTVC/BAC/bac-vacancy-project/truffle/contracts/Vacancy.sol",
  "compiler": {
    "name": "solc",
    "version": "0.7.3+commit.9bfce1f6.Emscripten.clang"
  },
  "schemaVersion": "3.3.4",
  "updatedAt": "2021-05-27T21:52:59.175Z",
  "networkType": "ethereum",
  "devdoc": {
    "kind": "dev",
    "methods": {},
    "version": 1
  },
  "userdoc": {
    "kind": "user",
    "methods": {},
    "version": 1
  }
}